{
  "address": "0x5FbDB2315678afecb367f032d93F642f64180aa3",
  "abi": [
    {
      "inputs": [
        {
          "internalType": "uint96",
          "name": "_baseFee",
          "type": "uint96"
        },
        {
          "internalType": "uint96",
          "name": "_gasPrice",
          "type": "uint96"
        },
        {
          "internalType": "int256",
          "name": "_weiPerUnitLink",
          "type": "int256"
        }
      ],
      "stateMutability": "nonpayable",
      "type": "constructor"
    },
    {
      "inputs": [
        {
          "internalType": "uint256",
          "name": "internalBalance",
          "type": "uint256"
        },
        {
          "internalType": "uint256",
          "name": "externalBalance",
          "type": "uint256"
        }
      ],
      "name": "BalanceInvariantViolated",
      "type": "error"
    },
    {
      "inputs": [],
      "name": "FailedToSendNative",
      "type": "error"
    },
    {
      "inputs": [],
      "name": "FailedToTransferLink",
      "type": "error"
    },
    {
      "inputs": [],
      "name": "IndexOutOfRange",
      "type": "error"
    },
    {
      "inputs": [],
      "name": "InsufficientBalance",
      "type": "error"
    },
    {
      "inputs": [],
      "name": "InvalidCalldata",
      "type": "error"
    },
    {
      "inputs": [
        {
          "internalType": "uint256",
          "name": "subId",
          "type": "uint256"
        },
        {
          "internalType": "address",
          "name": "consumer",
          "type": "address"
        }
      ],
      "name": "InvalidConsumer",
      "type": "error"
    },
    {
      "inputs": [],
      "name": "InvalidExtraArgsTag",
      "type": "error"
    },
    {
      "inputs": [],
      "name": "InvalidRandomWords",
      "type": "error"
    },
    {
      "inputs": [],
      "name": "InvalidRequest",
      "type": "error"
    },
    {
      "inputs": [],
      "name": "InvalidSubscription",
      "type": "error"
    },
    {
      "inputs": [],
      "name": "LinkAlreadySet",
      "type": "error"
    },
    {
      "inputs": [],
      "name": "LinkNotSet",
      "type": "error"
    },
    {
      "inputs": [
        {
          "internalType": "address",
          "name": "proposedOwner",
          "type": "address"
        }
      ],
      "name": "MustBeRequestedOwner",
      "type": "error"
    },
    {
      "inputs": [
        {
          "internalType": "address",
          "name": "owner",
          "type": "address"
        }
      ],
      "name": "MustBeSubOwner",
      "type": "error"
    },
    {
      "inputs": [],
      "name": "NotImplemented",
      "type": "error"
    },
    {
      "inputs": [],
      "name": "OnlyCallableFromLink",
      "type": "error"
    },
    {
      "inputs": [],
      "name": "PendingRequestExists",
      "type": "error"
    },
    {
      "inputs": [],
      "name": "Reentrant",
      "type": "error"
    },
    {
      "inputs": [],
      "name": "TooManyConsumers",
      "type": "error"
    },
    {
      "anonymous": false,
      "inputs": [],
      "name": "ConfigSet",
      "type": "event"
    },
    {
      "anonymous": false,
      "inputs": [
        {
          "indexed": false,
          "internalType": "address",
          "name": "to",
          "type": "address"
        },
        {
          "indexed": false,
          "internalType": "uint256",
          "name": "amount",
          "type": "uint256"
        }
      ],
      "name": "FundsRecovered",
      "type": "event"
    },
    {
      "anonymous": false,
      "inputs": [
        {
          "indexed": false,
          "internalType": "address",
          "name": "to",
          "type": "address"
        },
        {
          "indexed": false,
          "internalType": "uint256",
          "name": "amount",
          "type": "uint256"
        }
      ],
      "name": "NativeFundsRecovered",
      "type": "event"
    },
    {
      "anonymous": false,
      "inputs": [
        {
          "indexed": true,
          "internalType": "address",
          "name": "from",
          "type": "address"
        },
        {
          "indexed": true,
          "internalType": "address",
          "name": "to",
          "type": "address"
        }
      ],
      "name": "OwnershipTransferRequested",
      "type": "event"
    },
    {
      "anonymous": false,
      "inputs": [
        {
          "indexed": true,
          "internalType": "address",
          "name": "from",
          "type": "address"
        },
        {
          "indexed": true,
          "internalType": "address",
          "name": "to",
          "type": "address"
        }
      ],
      "name": "OwnershipTransferred",
      "type": "event"
    },
    {
      "anonymous": false,
      "inputs": [
        {
          "indexed": true,
          "internalType": "uint256",
          "name": "requestId",
          "type": "uint256"
        },
        {
          "indexed": false,
          "internalType": "uint256",
          "name": "outputSeed",
          "type": "uint256"
        },
        {
          "indexed": true,
          "internalType": "uint256",
          "name": "subId",
          "type": "uint256"
        },
        {
          "indexed": false,
          "internalType": "uint96",
          "name": "payment",
          "type": "uint96"
        },
        {
          "indexed": false,
          "internalType": "bool",
          "name": "nativePayment",
          "type": "bool"
        },
        {
          "indexed": false,
          "internalType": "bool",
          "name": "success",
          "type": "bool"
        },
        {
          "indexed": false,
          "internalType": "bool",
          "name": "onlyPremium",
          "type": "bool"
        }
      ],
      "name": "RandomWordsFulfilled",
      "type": "event"
    },
    {
      "anonymous": false,
      "inputs": [
        {
          "indexed": true,
          "internalType": "bytes32",
          "name": "keyHash",
          "type": "bytes32"
        },
        {
          "indexed": false,
          "internalType": "uint256",
          "name": "requestId",
          "type": "uint256"
        },
        {
          "indexed": false,
          "internalType": "uint256",
          "name": "preSeed",
          "type": "uint256"
        },
        {
          "indexed": true,
          "internalType": "uint256",
          "name": "subId",
          "type": "uint256"
        },
        {
          "indexed": false,
          "internalType": "uint16",
          "name": "minimumRequestConfirmations",
          "type": "uint16"
        },
        {
          "indexed": false,
          "internalType": "uint32",
          "name": "callbackGasLimit",
          "type": "uint32"
        },
        {
          "indexed": false,
          "internalType": "uint32",
          "name": "numWords",
          "type": "uint32"
        },
        {
          "indexed": false,
          "internalType": "bytes",
          "name": "extraArgs",
          "type": "bytes"
        },
        {
          "indexed": true,
          "internalType": "address",
          "name": "sender",
          "type": "address"
        }
      ],
      "name": "RandomWordsRequested",
      "type": "event"
    },
    {
      "anonymous": false,
      "inputs": [
        {
          "indexed": true,
          "internalType": "uint256",
          "name": "subId",
          "type": "uint256"
        },
        {
          "indexed": false,
          "internalType": "address",
          "name": "to",
          "type": "address"
        },
        {
          "indexed": false,
          "internalType": "uint256",
          "name": "amountLink",
          "type": "uint256"
        },
        {
          "indexed": false,
          "internalType": "uint256",
          "name": "amountNative",
          "type": "uint256"
        }
      ],
      "name": "SubscriptionCanceled",
      "type": "event"
    },
    {
      "anonymous": false,
      "inputs": [
        {
          "indexed": true,
          "internalType": "uint256",
          "name": "subId",
          "type": "uint256"
        },
        {
          "indexed": false,
          "internalType": "address",
          "name": "consumer",
          "type": "address"
        }
      ],
      "name": "SubscriptionConsumerAdded",
      "type": "event"
    },
    {
      "anonymous": false,
      "inputs": [
        {
          "indexed": true,
          "internalType": "uint256",
          "name": "subId",
          "type": "uint256"
        },
        {
          "indexed": false,
          "internalType": "address",
          "name": "consumer",
          "type": "address"
        }
      ],
      "name": "SubscriptionConsumerRemoved",
      "type": "event"
    },
    {
      "anonymous": false,
      "inputs": [
        {
          "indexed": true,
          "internalType": "uint256",
          "name": "subId",
          "type": "uint256"
        },
        {
          "indexed": false,
          "internalType": "address",
          "name": "owner",
          "type": "address"
        }
      ],
      "name": "SubscriptionCreated",
      "type": "event"
    },
    {
      "anonymous": false,
      "inputs": [
        {
          "indexed": true,
          "internalType": "uint256",
          "name": "subId",
          "type": "uint256"
        },
        {
          "indexed": false,
          "internalType": "uint256",
          "name": "oldBalance",
          "type": "uint256"
        },
        {
          "indexed": false,
          "internalType": "uint256",
          "name": "newBalance",
          "type": "uint256"
        }
      ],
      "name": "SubscriptionFunded",
      "type": "event"
    },
    {
      "anonymous": false,
      "inputs": [
        {
          "indexed": true,
          "internalType": "uint256",
          "name": "subId",
          "type": "uint256"
        },
        {
          "indexed": false,
          "internalType": "uint256",
          "name": "oldNativeBalance",
          "type": "uint256"
        },
        {
          "indexed": false,
          "internalType": "uint256",
          "name": "newNativeBalance",
          "type": "uint256"
        }
      ],
      "name": "SubscriptionFundedWithNative",
      "type": "event"
    },
    {
      "anonymous": false,
      "inputs": [
        {
          "indexed": true,
          "internalType": "uint256",
          "name": "subId",
          "type": "uint256"
        },
        {
          "indexed": false,
          "internalType": "address",
          "name": "from",
          "type": "address"
        },
        {
          "indexed": false,
          "internalType": "address",
          "name": "to",
          "type": "address"
        }
      ],
      "name": "SubscriptionOwnerTransferRequested",
      "type": "event"
    },
    {
      "anonymous": false,
      "inputs": [
        {
          "indexed": true,
          "internalType": "uint256",
          "name": "subId",
          "type": "uint256"
        },
        {
          "indexed": false,
          "internalType": "address",
          "name": "from",
          "type": "address"
        },
        {
          "indexed": false,
          "internalType": "address",
          "name": "to",
          "type": "address"
        }
      ],
      "name": "SubscriptionOwnerTransferred",
      "type": "event"
    },
    {
      "inputs": [],
      "name": "LINK",
      "outputs": [
        {
          "internalType": "contract LinkTokenInterface",
          "name": "",
          "type": "address"
        }
      ],
      "stateMutability": "view",
      "type": "function"
    },
    {
      "inputs": [],
      "name": "LINK_NATIVE_FEED",
      "outputs": [
        {
          "internalType": "contract AggregatorV3Interface",
          "name": "",
          "type": "address"
        }
      ],
      "stateMutability": "view",
      "type": "function"
    },
    {
      "inputs": [],
      "name": "MAX_CONSUMERS",
      "outputs": [
        {
          "internalType": "uint16",
          "name": "",
          "type": "uint16"
        }
      ],
      "stateMutability": "view",
      "type": "function"
    },
    {
      "inputs": [],
      "name": "acceptOwnership",
      "outputs": [],
      "stateMutability": "nonpayable",
      "type": "function"
    },
    {
      "inputs": [
        {
          "internalType": "uint256",
          "name": "subId",
          "type": "uint256"
        }
      ],
      "name": "acceptSubscriptionOwnerTransfer",
      "outputs": [],
      "stateMutability": "nonpayable",
      "type": "function"
    },
    {
      "inputs": [
        {
          "internalType": "uint256",
          "name": "subId",
          "type": "uint256"
        },
        {
          "internalType": "address",
          "name": "consumer",
          "type": "address"
        }
      ],
      "name": "addConsumer",
      "outputs": [],
      "stateMutability": "nonpayable",
      "type": "function"
    },
    {
      "inputs": [
        {
          "internalType": "uint256",
          "name": "_subId",
          "type": "uint256"
        },
        {
          "internalType": "address",
          "name": "_to",
          "type": "address"
        }
      ],
      "name": "cancelSubscription",
      "outputs": [],
      "stateMutability": "nonpayable",
      "type": "function"
    },
    {
      "inputs": [
        {
          "internalType": "uint256",
          "name": "_subId",
          "type": "uint256"
        },
        {
          "internalType": "address",
          "name": "_consumer",
          "type": "address"
        }
      ],
      "name": "consumerIsAdded",
      "outputs": [
        {
          "internalType": "bool",
          "name": "",
          "type": "bool"
        }
      ],
      "stateMutability": "view",
      "type": "function"
    },
    {
      "inputs": [],
      "name": "createSubscription",
      "outputs": [
        {
          "internalType": "uint256",
          "name": "subId",
          "type": "uint256"
        }
      ],
      "stateMutability": "nonpayable",
      "type": "function"
    },
    {
      "inputs": [
        {
          "internalType": "uint256",
          "name": "_requestId",
          "type": "uint256"
        },
        {
          "internalType": "address",
          "name": "_consumer",
          "type": "address"
        }
      ],
      "name": "fulfillRandomWords",
      "outputs": [],
      "stateMutability": "nonpayable",
      "type": "function"
    },
    {
      "inputs": [
        {
          "internalType": "uint256",
          "name": "_requestId",
          "type": "uint256"
        },
        {
          "internalType": "address",
          "name": "_consumer",
          "type": "address"
        },
        {
          "internalType": "uint256[]",
          "name": "_words",
          "type": "uint256[]"
        }
      ],
      "name": "fulfillRandomWordsWithOverride",
      "outputs": [],
      "stateMutability": "nonpayable",
      "type": "function"
    },
    {
      "inputs": [
        {
          "internalType": "uint256",
          "name": "_subId",
          "type": "uint256"
        },
        {
          "internalType": "uint256",
          "name": "_amount",
          "type": "uint256"
        }
      ],
      "name": "fundSubscription",
      "outputs": [],
      "stateMutability": "nonpayable",
      "type": "function"
    },
    {
      "inputs": [
        {
          "internalType": "uint256",
          "name": "subId",
          "type": "uint256"
        }
      ],
      "name": "fundSubscriptionWithNative",
      "outputs": [],
      "stateMutability": "payable",
      "type": "function"
    },
    {
      "inputs": [
        {
          "internalType": "uint256",
          "name": "startIndex",
          "type": "uint256"
        },
        {
          "internalType": "uint256",
          "name": "maxCount",
          "type": "uint256"
        }
      ],
      "name": "getActiveSubscriptionIds",
      "outputs": [
        {
          "internalType": "uint256[]",
          "name": "ids",
          "type": "uint256[]"
        }
      ],
      "stateMutability": "view",
      "type": "function"
    },
    {
      "inputs": [
        {
          "internalType": "uint256",
          "name": "subId",
          "type": "uint256"
        }
      ],
      "name": "getSubscription",
      "outputs": [
        {
          "internalType": "uint96",
          "name": "balance",
          "type": "uint96"
        },
        {
          "internalType": "uint96",
          "name": "nativeBalance",
          "type": "uint96"
        },
        {
          "internalType": "uint64",
          "name": "reqCount",
          "type": "uint64"
        },
        {
          "internalType": "address",
          "name": "subOwner",
          "type": "address"
        },
        {
          "internalType": "address[]",
          "name": "consumers",
          "type": "address[]"
        }
      ],
      "stateMutability": "view",
      "type": "function"
    },
    {
      "inputs": [],
      "name": "i_base_fee",
      "outputs": [
        {
          "internalType": "uint96",
          "name": "",
          "type": "uint96"
        }
      ],
      "stateMutability": "view",
      "type": "function"
    },
    {
      "inputs": [],
      "name": "i_gas_price",
      "outputs": [
        {
          "internalType": "uint96",
          "name": "",
          "type": "uint96"
        }
      ],
      "stateMutability": "view",
      "type": "function"
    },
    {
      "inputs": [],
      "name": "i_wei_per_unit_link",
      "outputs": [
        {
          "internalType": "int256",
          "name": "",
          "type": "int256"
        }
      ],
      "stateMutability": "view",
      "type": "function"
    },
    {
      "inputs": [
        {
          "internalType": "address",
          "name": "",
          "type": "address"
        },
        {
          "internalType": "uint256",
          "name": "amount",
          "type": "uint256"
        },
        {
          "internalType": "bytes",
          "name": "data",
          "type": "bytes"
        }
      ],
      "name": "onTokenTransfer",
      "outputs": [],
      "stateMutability": "nonpayable",
      "type": "function"
    },
    {
      "inputs": [],
      "name": "owner",
      "outputs": [
        {
          "internalType": "address",
          "name": "",
          "type": "address"
        }
      ],
      "stateMutability": "view",
      "type": "function"
    },
    {
      "inputs": [
        {
          "internalType": "uint256",
          "name": "subId",
          "type": "uint256"
        }
      ],
      "name": "ownerCancelSubscription",
      "outputs": [],
      "stateMutability": "nonpayable",
      "type": "function"
    },
    {
      "inputs": [
        {
          "internalType": "uint256",
          "name": "",
          "type": "uint256"
        }
      ],
      "name": "pendingRequestExists",
      "outputs": [
        {
          "internalType": "bool",
          "name": "",
          "type": "bool"
        }
      ],
      "stateMutability": "pure",
      "type": "function"
    },
    {
      "inputs": [
        {
          "internalType": "address",
          "name": "to",
          "type": "address"
        }
      ],
      "name": "recoverFunds",
      "outputs": [],
      "stateMutability": "nonpayable",
      "type": "function"
    },
    {
      "inputs": [
        {
          "internalType": "address payable",
          "name": "to",
          "type": "address"
        }
      ],
      "name": "recoverNativeFunds",
      "outputs": [],
      "stateMutability": "nonpayable",
      "type": "function"
    },
    {
      "inputs": [
        {
          "internalType": "uint256",
          "name": "_subId",
          "type": "uint256"
        },
        {
          "internalType": "address",
          "name": "_consumer",
          "type": "address"
        }
      ],
      "name": "removeConsumer",
      "outputs": [],
      "stateMutability": "nonpayable",
      "type": "function"
    },
    {
      "inputs": [
        {
          "components": [
            {
              "internalType": "bytes32",
              "name": "keyHash",
              "type": "bytes32"
            },
            {
              "internalType": "uint256",
              "name": "subId",
              "type": "uint256"
            },
            {
              "internalType": "uint16",
              "name": "requestConfirmations",
              "type": "uint16"
            },
            {
              "internalType": "uint32",
              "name": "callbackGasLimit",
              "type": "uint32"
            },
            {
              "internalType": "uint32",
              "name": "numWords",
              "type": "uint32"
            },
            {
              "internalType": "bytes",
              "name": "extraArgs",
              "type": "bytes"
            }
          ],
          "internalType": "struct VRFV2PlusClient.RandomWordsRequest",
          "name": "_req",
          "type": "tuple"
        }
      ],
      "name": "requestRandomWords",
      "outputs": [
        {
          "internalType": "uint256",
          "name": "",
          "type": "uint256"
        }
      ],
      "stateMutability": "nonpayable",
      "type": "function"
    },
    {
      "inputs": [
        {
          "internalType": "uint256",
          "name": "subId",
          "type": "uint256"
        },
        {
          "internalType": "address",
          "name": "newOwner",
          "type": "address"
        }
      ],
      "name": "requestSubscriptionOwnerTransfer",
      "outputs": [],
      "stateMutability": "nonpayable",
      "type": "function"
    },
    {
      "inputs": [],
      "name": "s_config",
      "outputs": [
        {
          "internalType": "uint16",
          "name": "minimumRequestConfirmations",
          "type": "uint16"
        },
        {
          "internalType": "uint32",
          "name": "maxGasLimit",
          "type": "uint32"
        },
        {
          "internalType": "bool",
          "name": "reentrancyLock",
          "type": "bool"
        },
        {
          "internalType": "uint32",
          "name": "stalenessSeconds",
          "type": "uint32"
        },
        {
          "internalType": "uint32",
          "name": "gasAfterPaymentCalculation",
          "type": "uint32"
        },
        {
          "internalType": "uint32",
          "name": "fulfillmentFlatFeeNativePPM",
          "type": "uint32"
        },
        {
          "internalType": "uint32",
          "name": "fulfillmentFlatFeeLinkDiscountPPM",
          "type": "uint32"
        },
        {
          "internalType": "uint8",
          "name": "nativePremiumPercentage",
          "type": "uint8"
        },
        {
          "internalType": "uint8",
          "name": "linkPremiumPercentage",
          "type": "uint8"
        }
      ],
      "stateMutability": "view",
      "type": "function"
    },
    {
      "inputs": [],
      "name": "s_currentSubNonce",
      "outputs": [
        {
          "internalType": "uint64",
          "name": "",
          "type": "uint64"
        }
      ],
      "stateMutability": "view",
      "type": "function"
    },
    {
      "inputs": [],
      "name": "s_totalBalance",
      "outputs": [
        {
          "internalType": "uint96",
          "name": "",
          "type": "uint96"
        }
      ],
      "stateMutability": "view",
      "type": "function"
    },
    {
      "inputs": [],
      "name": "s_totalNativeBalance",
      "outputs": [
        {
          "internalType": "uint96",
          "name": "",
          "type": "uint96"
        }
      ],
      "stateMutability": "view",
      "type": "function"
    },
    {
      "inputs": [],
      "name": "setConfig",
      "outputs": [],
      "stateMutability": "nonpayable",
      "type": "function"
    },
    {
      "inputs": [
        {
          "internalType": "address",
          "name": "link",
          "type": "address"
        },
        {
          "internalType": "address",
          "name": "linkNativeFeed",
          "type": "address"
        }
      ],
      "name": "setLINKAndLINKNativeFeed",
      "outputs": [],
      "stateMutability": "nonpayable",
      "type": "function"
    },
    {
      "inputs": [
        {
          "internalType": "address",
          "name": "to",
          "type": "address"
        }
      ],
      "name": "transferOwnership",
      "outputs": [],
      "stateMutability": "nonpayable",
      "type": "function"
    },
    {
      "inputs": [
        {
          "internalType": "address",
          "name": "recipient",
          "type": "address"
        }
      ],
      "name": "withdraw",
      "outputs": [],
      "stateMutability": "nonpayable",
      "type": "function"
    },
    {
      "inputs": [
        {
          "internalType": "address payable",
          "name": "recipient",
          "type": "address"
        }
      ],
      "name": "withdrawNative",
      "outputs": [],
      "stateMutability": "nonpayable",
      "type": "function"
    }
  ],
  "transactionHash": "0xbb68aa724860c66bf9bf1b360ecda126e130289fd379cd2814fb76833867acca",
  "args": [
    "250000000000000000",
    1000000000,
    4323045521844006
  ],
  "numDeployments": 1,
  "solcInputHash": "307f88e19a43313af83d611d138e20de",
  "bytecode": "0x60e06040526001600e556064600f553480156200001b57600080fd5b5060405162003c6438038062003c648339810160408190526200003e91620002a7565b3380600081620000955760405162461bcd60e51b815260206004820152601860248201527f43616e6e6f7420736574206f776e657220746f207a65726f000000000000000060448201526064015b60405180910390fd5b600080546001600160a01b0319166001600160a01b0384811691909117909155811615620000c857620000c881620000f6565b5050506001600160601b03808416608052821660a05260c0819052620000ed620001a1565b505050620002e8565b336001600160a01b03821603620001505760405162461bcd60e51b815260206004820152601760248201527f43616e6e6f74207472616e7366657220746f2073656c6600000000000000000060448201526064016200008c565b600180546001600160a01b0319166001600160a01b0383811691821790925560008054604051929316917fed8889f560326eb138920d842192f0eb3dd22b4f139c87a2c57538e05bae12789190a350565b620001ab6200022c565b6040805161012081018252600080825260208201819052818301819052606082018190526080820181905260a0820181905260c0820181905260e08201819052610100909101819052600c80546001600160c81b031916905590517f4b2974a542484cba2783812ff8033f7fc682cac2fe0905c28c5e27869b3155be9190a1565b6000546001600160a01b03163314620002885760405162461bcd60e51b815260206004820152601660248201527f4f6e6c792063616c6c61626c65206279206f776e65720000000000000000000060448201526064016200008c565b565b80516001600160601b0381168114620002a257600080fd5b919050565b600080600060608486031215620002bd57600080fd5b620002c8846200028a565b9250620002d8602085016200028a565b9150604084015190509250925092565b60805160a05160c0516139376200032d600039600081816103da0152610c570152600081816108070152610bde0152600081816104930152610c2901526139376000f3fe60806040526004361061024f5760003560e01c80638b673e7a11610138578063aefb212f116100b0578063dac83d291161007f578063dcab3dcf11610064578063dcab3dcf146107f5578063e72f6e3014610829578063f2fde38b1461084957600080fd5b8063dac83d29146107a4578063dc311dd3146107c457600080fd5b8063aefb212f14610717578063b2a7cac514610744578063bec4c08c14610764578063cb6317971461078457600080fd5b80639b1c385e11610107578063a21a23e4116100ec578063a21a23e4146106c2578063a4c0ed36146106d7578063aa433aff146106f757600080fd5b80639b1c385e146106685780639d40a6fd1461068857600080fd5b80638b673e7a146106025780638da5cb5b14610617578063953e9c751461063557806395b55cfc1461065557600080fd5b806341af6c87116101cb57806372e9d5651161019a578063808974ff1161017f578063808974ff146105a25780638402595e146105c257806386fe91c7146105e257600080fd5b806372e9d5651461056d57806379ba50971461058d57600080fd5b806341af6c87146104d557806351cff8d91461050557806364d51a2a14610525578063659827441461054d57600080fd5b806313478329116102225780631b6b6d23116102075780631b6b6d23146104495780631eebc117146104815780632f622e6b146104b557600080fd5b806313478329146103c857806318e3dd271461040a57600080fd5b8063088070f51461025457806308e3898e146103665780630ae0954014610388578063115e3c0d146103a8575b600080fd5b34801561026057600080fd5b50600c546103049061ffff81169063ffffffff62010000820481169160ff6601000000000000820481169267010000000000000083048116926b01000000000000000000000081048216926f01000000000000000000000000000000820483169273010000000000000000000000000000000000000083041691770100000000000000000000000000000000000000000000008104821691600160c01b9091041689565b6040805161ffff909a168a5263ffffffff98891660208b01529615159689019690965293861660608801529185166080870152841660a08601529290921660c084015260ff91821660e084015216610100820152610120015b60405180910390f35b34801561037257600080fd5b50610386610381366004613143565b610869565b005b34801561039457600080fd5b506103866103a3366004613207565b610d44565b3480156103b457600080fd5b506103866103c3366004613237565b610e44565b3480156103d457600080fd5b506103fc7f000000000000000000000000000000000000000000000000000000000000000081565b60405190815260200161035d565b34801561041657600080fd5b50600a5461043190600160601b90046001600160601b031681565b6040516001600160601b03909116815260200161035d565b34801561045557600080fd5b50600254610469906001600160a01b031681565b6040516001600160a01b03909116815260200161035d565b34801561048d57600080fd5b506104317f000000000000000000000000000000000000000000000000000000000000000081565b3480156104c157600080fd5b506103866104d0366004613259565b610f58565b3480156104e157600080fd5b506104f56104f0366004613276565b6110ac565b604051901515815260200161035d565b34801561051157600080fd5b50610386610520366004613259565b6110e0565b34801561053157600080fd5b5061053a606481565b60405161ffff909116815260200161035d565b34801561055957600080fd5b5061038661056836600461328f565b611262565b34801561057957600080fd5b50600354610469906001600160a01b031681565b34801561059957600080fd5b506103866112db565b3480156105ae57600080fd5b506103866105bd366004613207565b611391565b3480156105ce57600080fd5b506103866105dd366004613259565b6113b5565b3480156105ee57600080fd5b50600a54610431906001600160601b031681565b34801561060e57600080fd5b506103866114d0565b34801561062357600080fd5b506000546001600160a01b0316610469565b34801561064157600080fd5b506104f5610650366004613207565b611571565b610386610663366004613276565b61159f565b34801561067457600080fd5b506103fc6106833660046132bd565b6116c3565b34801561069457600080fd5b506007546106a99067ffffffffffffffff1681565b60405167ffffffffffffffff909116815260200161035d565b3480156106ce57600080fd5b506103fc611927565b3480156106e357600080fd5b506103866106f23660046132f8565b611b40565b34801561070357600080fd5b50610386610712366004613276565b611ce3565b34801561072357600080fd5b50610737610732366004613237565b611d2b565b60405161035d91906133bc565b34801561075057600080fd5b5061038661075f366004613276565b611e46565b34801561077057600080fd5b5061038661077f366004613207565b611f63565b34801561079057600080fd5b5061038661079f366004613207565b61206f565b3480156107b057600080fd5b506103866107bf366004613207565b6122fd565b3480156107d057600080fd5b506107e46107df366004613276565b612397565b60405161035d9594939291906133cf565b34801561080157600080fd5b506104317f000000000000000000000000000000000000000000000000000000000000000081565b34801561083557600080fd5b50610386610844366004613259565b612486565b34801561085557600080fd5b50610386610864366004613259565b612682565b60005a600085815260106020526040812054919250036108b5576040517f41abc80100000000000000000000000000000000000000000000000000000000815260040160405180910390fd5b6000848152601060209081526040808320815160808101835281548152600182015463ffffffff8082169583019590955264010000000090049093169183019190915260028101805460608401919061090d90613457565b80601f016020809104026020016040519081016040528092919081815260200182805461093990613457565b80156109865780601f1061095b57610100808354040283529160200191610986565b820191906000526020600020905b81548152906001019060200180831161096957829003601f168201915b50505050508152505090508251600003610a6057806040015163ffffffff1667ffffffffffffffff8111156109bd576109bd6130fc565b6040519080825280602002602001820160405280156109e6578160200160208202803683370190505b50925060005b816040015163ffffffff16811015610a5a5760408051602081018890529081018290526060016040516020818303038152906040528051906020012060001c848281518110610a3d57610a3d613491565b602090810291909101015280610a52816134bd565b9150506109ec565b50610aa4565b806040015163ffffffff16835114610aa4576040517f3f3df5b600000000000000000000000000000000000000000000000000000000815260040160405180910390fd5b600080631fe543e360e01b8786604051602401610ac29291906134d6565b60408051601f19818403018152918152602080830180517bffffffffffffffffffffffffffffffffffffffffffffffffffffffff166001600160e01b031990951694909417909352600c805466ff000000000000191666010000000000001790559185015191519092506000916001600160a01b0389169163ffffffff90911690610b4e90859061351b565b60006040518083038160008787f1925050503d8060008114610b8c576040519150601f19603f3d011682016040523d82523d6000602084013e610b91565b606091505b5050600c805466ff0000000000001916905560608501518051919250600091610bbc90600190613537565b81518110610bcc57610bcc613491565b60209101015160f81c600114905060007f00000000000000000000000000000000000000000000000000000000000000006001600160601b03165a610c119089613537565b610c1b919061354a565b610c4e906001600160601b037f000000000000000000000000000000000000000000000000000000000000000016613561565b905081610c95577f0000000000000000000000000000000000000000000000000000000000000000610c8882670de0b6b3a764000061354a565b610c929190613574565b90505b85518190610ca69082908590612696565b60008b815260106020526040812081815560018101805467ffffffffffffffff1916905590610cd86002830182613019565b50508651604080518d81526001600160601b03841660208201528515158183015286151560608201526000608082015290518d917faeb4b4786571e184246d39587f659abf0e26f41f6a3358692250382c0cdb47b7919081900360a00190a35050505050505050505050565b81610d4e81612803565b610d56612886565b600080610d62856128cf565b915091506000846001600160a01b0316826001600160601b031660405160006040518083038185875af1925050503d8060008114610dbc576040519150601f19603f3d011682016040523d82523d6000602084013e610dc1565b606091505b5050905080610de35760405163950b247960e01b815260040160405180910390fd5b604080516001600160a01b03871681526001600160601b03808616602083015284169181019190915286907f8c74ce8b8cf87f5eb001275c8be27eb34ea2b62bfab6814fcc62192bb63e81c4906060015b60405180910390a2505050505050565b6000828152600560205260409020546001600160a01b0316610e7957604051630fb532db60e11b815260040160405180910390fd5b600082815260066020526040812080546001600160601b031691839190610ea08385613596565b92506101000a8154816001600160601b0302191690836001600160601b0316021790555081600a60008282829054906101000a90046001600160601b0316610ee89190613596565b92506101000a8154816001600160601b0302191690836001600160601b03160217905550827f1ced9348ff549fceab2ac57cd3a9de38edaaab274b725ee82c23e8fc8c4eec7a828484610f3b9190613561565b6040805192835260208301919091520160405180910390a2505050565b610f60612886565b610f68612a8f565b600b54600160601b90046001600160601b0316600003610f9b57604051631e9acf1760e31b815260040160405180910390fd5b600b8054600160601b90046001600160601b0316908190600c610fbe83806135b6565b92506101000a8154816001600160601b0302191690836001600160601b0316021790555080600a600c8282829054906101000a90046001600160601b031661100691906135b6565b92506101000a8154816001600160601b0302191690836001600160601b031602179055506000826001600160a01b0316826001600160601b031660405160006040518083038185875af1925050503d8060008114611080576040519150601f19603f3d011682016040523d82523d6000602084013e611085565b606091505b50509050806110a75760405163950b247960e01b815260040160405180910390fd5b505050565b60006040517fd623472500000000000000000000000000000000000000000000000000000000815260040160405180910390fd5b6110e8612886565b6110f0612a8f565b6002546001600160a01b03166111195760405163c1f0c0a160e01b815260040160405180910390fd5b600b546001600160601b031660000361114557604051631e9acf1760e31b815260040160405180910390fd5b600b80546001600160601b0316908190600061116183806135b6565b92506101000a8154816001600160601b0302191690836001600160601b0316021790555080600a60008282829054906101000a90046001600160601b03166111a991906135b6565b82546101009290920a6001600160601b0381810219909316918316021790915560025460405163a9059cbb60e01b81526001600160a01b03868116600483015292851660248201529116915063a9059cbb906044016020604051808303816000875af115801561121d573d6000803e3d6000fd5b505050506040513d601f19601f8201168201806040525081019061124191906135e4565b61125e57604051631e9acf1760e31b815260040160405180910390fd5b5050565b61126a612a8f565b6002546001600160a01b0316156112ad576040517f2d118a6e00000000000000000000000000000000000000000000000000000000815260040160405180910390fd5b600280546001600160a01b039384166001600160a01b03199182161790915560038054929093169116179055565b6001546001600160a01b0316331461133a5760405162461bcd60e51b815260206004820152601660248201527f4d7573742062652070726f706f736564206f776e65720000000000000000000060448201526064015b60405180910390fd5b60008054336001600160a01b0319808316821784556001805490911690556040516001600160a01b0390921692909183917f8be0079c531659141344cd1fd0a4f28419497f9722a3daafe3b4186f6b6457e091a350565b611399612886565b60408051600081526020810190915261125e9083908390610869565b6113bd612a8f565b600a544790600160601b90046001600160601b0316818111156113fd576040516354ced18160e11b81526004810182905260248101839052604401611331565b818110156110a75760006114118284613537565b90506000846001600160a01b03168260405160006040518083038185875af1925050503d8060008114611460576040519150601f19603f3d011682016040523d82523d6000602084013e611465565b606091505b50509050806114875760405163950b247960e01b815260040160405180910390fd5b604080516001600160a01b0387168152602081018490527f4aed7c8eed0496c8c19ea2681fcca25741c1602342e38b045d9f1e8e905d2e9c910160405180910390a15050505050565b6114d8612a8f565b6040805161012081018252600080825260208201819052818301819052606082018190526080820181905260a0820181905260c0820181905260e08201819052610100909101819052600c80547fffffffffffffff0000000000000000000000000000000000000000000000000016905590517f4b2974a542484cba2783812ff8033f7fc682cac2fe0905c28c5e27869b3155be9190a1565b6001600160a01b038116600090815260046020908152604080832085845290915290205460ff165b92915050565b6115a7612886565b6000818152600560205260409020546001600160a01b03166115dc57604051630fb532db60e11b815260040160405180910390fd5b60008181526006602052604090208054600160601b90046001600160601b0316903490600c61160b8385613596565b92506101000a8154816001600160601b0302191690836001600160601b0316021790555034600a600c8282829054906101000a90046001600160601b03166116539190613596565b92506101000a8154816001600160601b0302191690836001600160601b03160217905550817f7603b205d03651ee812f803fccde89f1012e545a9c99f0abfea9cedd0fd8e9028234846116a69190613561565b604080519283526020830191909152015b60405180910390a25050565b60006116cd612886565b8160200135336116dd8282611571565b61170c576040516379bfd40160e01b8152600481018390526001600160a01b0382166024820152604401611331565b602080850135600081815260059092526040909120546001600160a01b031661174857604051630fb532db60e11b815260040160405180910390fd5b600e805460009182611759836134bd565b90915550600f80549192506000919082611772836134bd565b909155509050600061179761179261178d60a08b018b613601565b612ae9565b612ba3565b90506040518060800160405280896020013581526020018960600160208101906117c1919061364f565b63ffffffff1681526020016117dc60a08b0160808c0161364f565b63ffffffff1681526020016117f460a08b018b613601565b8080601f01602080910402602001604051908101604052809392919081815260200183838082843760009201829052509390945250508581526010602090815260409182902084518155908401516001820180549386015163ffffffff9081166401000000000267ffffffffffffffff19909516921691909117929092179091556060830151909150600282019061188c90826136c3565b50905050336001600160a01b0316886020013589600001357feb0e3652e0f44f417695e6e90f2f42c99b65cd7169074c5a654b16b9748c3a4e86868d60400160208101906118da9190613783565b8e60600160208101906118ed919061364f565b8f6080016020810190611900919061364f565b89604051611913969594939291906137a7565b60405180910390a450909695505050505050565b6000611931612886565b60075467ffffffffffffffff163361194a600143613537565b6040516bffffffffffffffffffffffff19606093841b81166020830152914060348201523090921b1660548201527fffffffffffffffff00000000000000000000000000000000000000000000000060c083901b16606882015260700160408051601f19818403018152919052805160209091012091506119cc81600161380b565b6007805467ffffffffffffffff191667ffffffffffffffff928316179055604080516000808252608082018352602080830182815283850183815260608086018581528a86526006855287862093518454935191516001600160601b039182167fffffffffffffffff00000000000000000000000000000000000000000000000090951694909417600160601b91909216021777ffffffffffffffffffffffffffffffffffffffffffffffff16600160c01b9290981691909102969096179055835194850184523385528481018281528585018481528884526005835294909220855181546001600160a01b03199081166001600160a01b039283161783559351600183018054909516911617909255925180519294939192611af59260028501920190613053565b50611b0591506008905084612c29565b5060405133815283907f1d3015d7ba850fa198dc7b1a3f5d42779313a681035f77c8c03764c61005518d9060200160405180910390a2505090565b611b48612886565b6002546001600160a01b03163314611b8c576040517f44b0e3c300000000000000000000000000000000000000000000000000000000815260040160405180910390fd5b60208114611bc6576040517f8129bbcd00000000000000000000000000000000000000000000000000000000815260040160405180910390fd5b6000611bd482840184613276565b6000818152600560205260409020549091506001600160a01b0316611c0c57604051630fb532db60e11b815260040160405180910390fd5b600081815260066020526040812080546001600160601b031691869190611c338385613596565b92506101000a8154816001600160601b0302191690836001600160601b0316021790555084600a60008282829054906101000a90046001600160601b0316611c7b9190613596565b92506101000a8154816001600160601b0302191690836001600160601b03160217905550817f1ced9348ff549fceab2ac57cd3a9de38edaaab274b725ee82c23e8fc8c4eec7a828784611cce9190613561565b60408051928352602083019190915201610e34565b611ceb612a8f565b6000818152600560205260409020546001600160a01b031680611d2157604051630fb532db60e11b815260040160405180910390fd5b61125e8282612c35565b60606000611d396008612ddb565b9050808410611d74576040517f1390f2a100000000000000000000000000000000000000000000000000000000815260040160405180910390fd5b6000611d808486613561565b905081811180611d8e575083155b611d985780611d9a565b815b90506000611da88683613537565b90508067ffffffffffffffff811115611dc357611dc36130fc565b604051908082528060200260200182016040528015611dec578160200160208202803683370190505b50935060005b81811015611e3c57611e0f611e078883613561565b600890612de5565b858281518110611e2157611e21613491565b6020908102919091010152611e35816134bd565b9050611df2565b5050505092915050565b611e4e612886565b6000818152600560205260409020546001600160a01b031680611e8457604051630fb532db60e11b815260040160405180910390fd5b6000828152600560205260409020600101546001600160a01b03163314611ef657600082815260056020526040908190206001015490517fd084e9750000000000000000000000000000000000000000000000000000000081526001600160a01b039091166004820152602401611331565b6000828152600560209081526040918290208054336001600160a01b03199182168117835560019092018054909116905582516001600160a01b03851681529182015283917fd4114ab6e9af9f597c52041f32d62dc57c5c4e4c0d4427006069635e216c938691016116b7565b81611f6d81612803565b611f75612886565b6001600160a01b03821660009081526004602090815260408083208684529091529020805460ff1615611fa85750505050565b6000848152600560205260409020600201805460631901611ff5576040517f05a48e0f00000000000000000000000000000000000000000000000000000000815260040160405180910390fd5b8154600160ff199091168117835581549081018255600082815260209081902090910180546001600160a01b0319166001600160a01b03871690811790915560405190815286917f1e980d04aa7648e205713e5e8ea3808672ac163d10936d36f91b2c88ac1575e191015b60405180910390a25050505050565b8161207981612803565b82826120858282611571565b6120b4576040516379bfd40160e01b8152600481018390526001600160a01b0382166024820152604401611331565b6120bc612886565b6001600160a01b038416600090815260046020908152604080832088845290915290205460ff16612112576040516379bfd40160e01b8152600481018690526001600160a01b0385166024820152604401611331565b60008581526005602090815260408083206002018054825181850281018501909352808352919290919083018282801561217557602002820191906000526020600020905b81546001600160a01b03168152600190910190602001808311612157575b5050505050905060006001825161218c9190613537565b905060005b825181101561229557866001600160a01b03168382815181106121b6576121b6613491565b60200260200101516001600160a01b0316036122855760008383815181106121e0576121e0613491565b6020026020010151905080600560008b8152602001908152602001600020600201838154811061221257612212613491565b600091825260208083209190910180546001600160a01b0319166001600160a01b0394909416939093179092558a815260059091526040902060020180548061225d5761225d61382c565b600082815260209020810160001990810180546001600160a01b031916905501905550612295565b61228e816134bd565b9050612191565b506001600160a01b03861660008181526004602090815260408083208b8452825291829020805460ff19169055905191825288917f32158c6058347c1601b2d12bc696ac6901d8a9a9aa3ba10c27ab0a983e8425a7910160405180910390a250505050505050565b8161230781612803565b61230f612886565b600083815260056020526040902060018101546001600160a01b03848116911614612391576001810180546001600160a01b0319166001600160a01b03851690811790915560408051338152602081019290925285917f21a4dad170a6bf476c31bbcf4a16628295b0e450672eec25d7c93308e05344a1910160405180910390a25b50505050565b600081815260056020526040812054819081906001600160a01b03166060816123d357604051630fb532db60e11b815260040160405180910390fd5b600086815260066020908152604080832054600583529281902060020180548251818502810185019093528083526001600160601b0380861695600160601b810490911694600160c01b90910467ffffffffffffffff1693889392909183919083018282801561246c57602002820191906000526020600020905b81546001600160a01b0316815260019091019060200180831161244e575b505050505090509450945094509450945091939590929450565b61248e612a8f565b6002546001600160a01b03166124b75760405163c1f0c0a160e01b815260040160405180910390fd5b6002546040517f70a082310000000000000000000000000000000000000000000000000000000081523060048201526000916001600160a01b0316906370a0823190602401602060405180830381865afa158015612519573d6000803e3d6000fd5b505050506040513d601f19601f8201168201806040525081019061253d9190613842565b600a549091506001600160601b031681811115612577576040516354ced18160e11b81526004810182905260248101839052604401611331565b818110156110a757600061258b8284613537565b60025460405163a9059cbb60e01b81526001600160a01b0387811660048301526024820184905292935091169063a9059cbb906044016020604051808303816000875af11580156125e0573d6000803e3d6000fd5b505050506040513d601f19601f8201168201806040525081019061260491906135e4565b61263a576040517f7c07fc4c00000000000000000000000000000000000000000000000000000000815260040160405180910390fd5b604080516001600160a01b0386168152602081018390527f59bfc682b673f8cbf945f1e454df9334834abf7dfe7f92237ca29ecb9b436600910160405180910390a150505050565b61268a612a8f565b61269381612df1565b50565b6000818152600660205260409020821561276a5780546001600160601b03600160601b90910481169085168110156126e157604051631e9acf1760e31b815260040160405180910390fd5b6126eb85826135b6565b82547fffffffffffffffff000000000000000000000000ffffffffffffffffffffffff16600160601b6001600160601b039283168102919091178455600b805488939192600c92612740928692900416613596565b92506101000a8154816001600160601b0302191690836001600160601b0316021790555050612391565b80546001600160601b0390811690851681101561279a57604051631e9acf1760e31b815260040160405180910390fd5b6127a485826135b6565b82546bffffffffffffffffffffffff19166001600160601b03918216178355600b805487926000916127d891859116613596565b92506101000a8154816001600160601b0302191690836001600160601b031602179055505050505050565b6000818152600560205260409020546001600160a01b03168061283957604051630fb532db60e11b815260040160405180910390fd5b336001600160a01b0382161461125e576040517fd8a3fb520000000000000000000000000000000000000000000000000000000081526001600160a01b0382166004820152602401611331565b600c546601000000000000900460ff16156128cd576040517fed3ba6a600000000000000000000000000000000000000000000000000000000815260040160405180910390fd5b565b60008181526005602090815260408083206006909252822054600290910180546001600160601b0380841694600160601b90940416925b81811015612989576004600084838154811061292457612924613491565b60009182526020808320909101546001600160a01b031683528281019390935260409182018120898252909252902080547fffffffffffffffffffffffffffffff0000000000000000000000000000000000169055612982816134bd565b9050612906565b50600085815260056020526040812080546001600160a01b031990811682556001820180549091169055906129c160028301826130b8565b50506000858152600660205260408120556129dd600886612e9a565b506001600160601b03841615612a3057600a8054859190600090612a0b9084906001600160601b03166135b6565b92506101000a8154816001600160601b0302191690836001600160601b031602179055505b6001600160601b03831615612a885782600a600c8282829054906101000a90046001600160601b0316612a6391906135b6565b92506101000a8154816001600160601b0302191690836001600160601b031602179055505b5050915091565b6000546001600160a01b031633146128cd5760405162461bcd60e51b815260206004820152601660248201527f4f6e6c792063616c6c61626c65206279206f776e6572000000000000000000006044820152606401611331565b6040805160208101909152600081526000829003612b165750604080516020810190915260008152611599565b7f92fd133800000000000000000000000000000000000000000000000000000000612b41838561385b565b6001600160e01b03191614612b82576040517f5247fdce00000000000000000000000000000000000000000000000000000000815260040160405180910390fd5b612b8f826004818661388b565b810190612b9c91906138b5565b9392505050565b60607f92fd13387c7fe7befbc38d303d6468778fb9731bc4583f17d92989c6fcfdeaaa82604051602401612bdc91511515815260200190565b60408051601f198184030181529190526020810180517bffffffffffffffffffffffffffffffffffffffffffffffffffffffff166001600160e01b03199093169290921790915292915050565b6000612b9c8383612ea6565b600080612c41846128cf565b60025491935091506001600160a01b031615801590612c6857506001600160601b03821615155b15612d095760025460405163a9059cbb60e01b81526001600160a01b0385811660048301526001600160601b03851660248301529091169063a9059cbb906044016020604051808303816000875af1158015612cc8573d6000803e3d6000fd5b505050506040513d601f19601f82011682018060405250810190612cec91906135e4565b612d0957604051631e9acf1760e31b815260040160405180910390fd5b6000836001600160a01b0316826001600160601b031660405160006040518083038185875af1925050503d8060008114612d5f576040519150601f19603f3d011682016040523d82523d6000602084013e612d64565b606091505b5050905080612d865760405163950b247960e01b815260040160405180910390fd5b604080516001600160a01b03861681526001600160601b03808616602083015284169181019190915285907f8c74ce8b8cf87f5eb001275c8be27eb34ea2b62bfab6814fcc62192bb63e81c490606001612060565b6000611599825490565b6000612b9c8383612ef5565b336001600160a01b03821603612e495760405162461bcd60e51b815260206004820152601760248201527f43616e6e6f74207472616e7366657220746f2073656c660000000000000000006044820152606401611331565b600180546001600160a01b0319166001600160a01b0383811691821790925560008054604051929316917fed8889f560326eb138920d842192f0eb3dd22b4f139c87a2c57538e05bae12789190a350565b6000612b9c8383612f1f565b6000818152600183016020526040812054612eed57508154600181810184556000848152602080822090930184905584548482528286019093526040902091909155611599565b506000611599565b6000826000018281548110612f0c57612f0c613491565b9060005260206000200154905092915050565b60008181526001830160205260408120548015613008576000612f43600183613537565b8554909150600090612f5790600190613537565b9050818114612fbc576000866000018281548110612f7757612f77613491565b9060005260206000200154905080876000018481548110612f9a57612f9a613491565b6000918252602080832090910192909255918252600188019052604090208390555b8554869080612fcd57612fcd61382c565b600190038181906000526020600020016000905590558560010160008681526020019081526020016000206000905560019350505050611599565b6000915050611599565b5092915050565b50805461302590613457565b6000825580601f10613035575050565b601f01602090049060005260206000209081019061269391906130d2565b8280548282559060005260206000209081019282156130a8579160200282015b828111156130a857825182546001600160a01b0319166001600160a01b03909116178255602090920191600190910190613073565b506130b49291506130d2565b5090565b508054600082559060005260206000209081019061269391905b5b808211156130b457600081556001016130d3565b6001600160a01b038116811461269357600080fd5b634e487b7160e01b600052604160045260246000fd5b604051601f8201601f1916810167ffffffffffffffff8111828210171561313b5761313b6130fc565b604052919050565b60008060006060848603121561315857600080fd5b8335925060208085013561316b816130e7565b9250604085013567ffffffffffffffff8082111561318857600080fd5b818701915087601f83011261319c57600080fd5b8135818111156131ae576131ae6130fc565b8060051b91506131bf848301613112565b818152918301840191848101908a8411156131d957600080fd5b938501935b838510156131f7578435825293850193908501906131de565b8096505050505050509250925092565b6000806040838503121561321a57600080fd5b82359150602083013561322c816130e7565b809150509250929050565b6000806040838503121561324a57600080fd5b50508035926020909101359150565b60006020828403121561326b57600080fd5b8135612b9c816130e7565b60006020828403121561328857600080fd5b5035919050565b600080604083850312156132a257600080fd5b82356132ad816130e7565b9150602083013561322c816130e7565b6000602082840312156132cf57600080fd5b813567ffffffffffffffff8111156132e657600080fd5b820160c08185031215612b9c57600080fd5b6000806000806060858703121561330e57600080fd5b8435613319816130e7565b935060208501359250604085013567ffffffffffffffff8082111561333d57600080fd5b818701915087601f83011261335157600080fd5b81358181111561336057600080fd5b88602082850101111561337257600080fd5b95989497505060200194505050565b600081518084526020808501945080840160005b838110156133b157815187529582019590820190600101613395565b509495945050505050565b602081526000612b9c6020830184613381565b600060a082016001600160601b03808916845260208189168186015267ffffffffffffffff881660408601526001600160a01b039150818716606086015260a0608086015282865180855260c087019150828801945060005b81811015613446578551851683529483019491830191600101613428565b50909b9a5050505050505050505050565b600181811c9082168061346b57607f821691505b60208210810361348b57634e487b7160e01b600052602260045260246000fd5b50919050565b634e487b7160e01b600052603260045260246000fd5b634e487b7160e01b600052601160045260246000fd5b6000600182016134cf576134cf6134a7565b5060010190565b8281526040602082015260006134ef6040830184613381565b949350505050565b60005b838110156135125781810151838201526020016134fa565b50506000910152565b6000825161352d8184602087016134f7565b9190910192915050565b81810381811115611599576115996134a7565b8082028115828204841417611599576115996134a7565b80820180821115611599576115996134a7565b60008261359157634e487b7160e01b600052601260045260246000fd5b500490565b6001600160601b03818116838216019080821115613012576130126134a7565b6001600160601b03828116828216039080821115613012576130126134a7565b801515811461269357600080fd5b6000602082840312156135f657600080fd5b8151612b9c816135d6565b6000808335601e1984360301811261361857600080fd5b83018035915067ffffffffffffffff82111561363357600080fd5b60200191503681900382131561364857600080fd5b9250929050565b60006020828403121561366157600080fd5b813563ffffffff81168114612b9c57600080fd5b601f8211156110a757600081815260208120601f850160051c8101602086101561369c5750805b601f850160051c820191505b818110156136bb578281556001016136a8565b505050505050565b815167ffffffffffffffff8111156136dd576136dd6130fc565b6136f1816136eb8454613457565b84613675565b602080601f831160018114613726576000841561370e5750858301515b600019600386901b1c1916600185901b1785556136bb565b600085815260208120601f198616915b8281101561375557888601518255948401946001909101908401613736565b50858210156137735787850151600019600388901b60f8161c191681555b5050505050600190811b01905550565b60006020828403121561379557600080fd5b813561ffff81168114612b9c57600080fd5b86815285602082015261ffff85166040820152600063ffffffff808616606084015280851660808401525060c060a083015282518060c08401526137f28160e08501602087016134f7565b601f01601f19169190910160e001979650505050505050565b67ffffffffffffffff818116838216019080821115613012576130126134a7565b634e487b7160e01b600052603160045260246000fd5b60006020828403121561385457600080fd5b5051919050565b6001600160e01b031981358181169160048510156138835780818660040360031b1b83161692505b505092915050565b6000808585111561389b57600080fd5b838611156138a857600080fd5b5050820193919092039150565b6000602082840312156138c757600080fd5b6040516020810181811067ffffffffffffffff821117156138ea576138ea6130fc565b60405282356138f8816135d6565b8152939250505056fea264697066735822122013db12e6c74d317643aaeaa03ed72a2a0f1dfdbbca5eb091a987de8701e7234664736f6c63430008130033",
  "devdoc": {
    "kind": "dev",
    "methods": {
      "acceptSubscriptionOwnerTransfer(uint256)": {
        "details": "will revert if original owner of subId has not requested that msg.sender become the new owner.",
        "params": {
          "subId": "- ID of the subscription"
        }
      },
      "addConsumer(uint256,address)": {
        "params": {
          "consumer": "- New consumer which can use the subscription",
          "subId": "- ID of the subscription"
        }
      },
      "cancelSubscription(uint256,address)": {
        "params": {
          "subId": "- ID of the subscription",
          "to": "- Where to send the remaining LINK to"
        }
      },
      "createSubscription()": {
        "details": "You can manage the consumer set dynamically with addConsumer/removeConsumer.Note to fund the subscription with LINK, use transferAndCall. For exampleLINKTOKEN.transferAndCall(address(COORDINATOR),amount,abi.encode(subId));Note to fund the subscription with Native, use fundSubscriptionWithNative. Be sureto send Native with the call, for example:COORDINATOR.fundSubscriptionWithNative{value: amount}(subId);",
        "returns": {
          "subId": "- A unique subscription id."
        }
      },
      "fulfillRandomWords(uint256,address)": {
        "details": "This mock uses a simplified formula for calculating payment amount and gas usage, and doesnot account for all edge cases handled in the real VRF coordinator. When making requestsagainst the real coordinator a small amount of additional LINK is required.",
        "params": {
          "_consumer": "the VRF randomness consumer to send the result to",
          "_requestId": "the request to fulfill"
        }
      },
      "fulfillRandomWordsWithOverride(uint256,address,uint256[])": {
        "params": {
          "_consumer": "the VRF randomness consumer to send the result to",
          "_requestId": "the request to fulfill",
          "_words": "user-provided random words"
        }
      },
      "fundSubscription(uint256,uint256)": {
        "params": {
          "_amount": "the amount to fund",
          "_subId": "the subscription to fund"
        }
      },
      "fundSubscriptionWithNative(uint256)": {
        "params": {
          "subId": "- ID of the subscription"
        }
      },
      "getActiveSubscriptionIds(uint256,uint256)": {
        "details": "the order of IDs in the list is **not guaranteed**, therefore, if making successive calls, oneshould consider keeping the blockheight constant to ensure a holistic picture of the contract state",
        "params": {
          "maxCount": "maximum number of subscriptions to return, 0 to return all",
          "startIndex": "index of the subscription to start from"
        }
      },
      "getSubscription(uint256)": {
        "params": {
          "subId": "- ID of the subscription"
        },
        "returns": {
          "balance": "- LINK balance of the subscription in juels.",
          "consumers": "- list of consumer address which are able to use this subscription.",
          "nativeBalance": "- native balance of the subscription in wei.",
          "reqCount": "- Requests count of subscription.",
          "subOwner": "- owner of the subscription."
        }
      },
      "ownerCancelSubscription(uint256)": {
        "details": "notably can be called even if there are pending requests, outstanding ones may fail onchain",
        "params": {
          "subId": "subscription id"
        }
      },
      "recoverFunds(address)": {
        "params": {
          "to": "address to send link to"
        }
      },
      "recoverNativeFunds(address)": {
        "params": {
          "to": "address to send native to"
        }
      },
      "removeConsumer(uint256,address)": {
        "params": {
          "consumer": "- Consumer to remove from the subscription",
          "subId": "- ID of the subscription"
        }
      },
      "requestSubscriptionOwnerTransfer(uint256,address)": {
        "params": {
          "newOwner": "- proposed new owner of the subscription",
          "subId": "- ID of the subscription"
        }
      },
      "setLINKAndLINKNativeFeed(address,address)": {
        "params": {
          "link": "- address of link token",
          "linkNativeFeed": "address of the link native feed"
        }
      }
    },
    "version": 1
  },
  "userdoc": {
    "kind": "user",
    "methods": {
      "acceptOwnership()": {
        "notice": "Allows an ownership transfer to be completed by the recipient."
      },
      "acceptSubscriptionOwnerTransfer(uint256)": {
        "notice": "Accept subscription owner transfer."
      },
      "addConsumer(uint256,address)": {
        "notice": "Add a consumer to a VRF subscription."
      },
      "cancelSubscription(uint256,address)": {
        "notice": "Cancel a subscription"
      },
      "createSubscription()": {
        "notice": "Create a VRF subscription."
      },
      "fulfillRandomWords(uint256,address)": {
        "notice": "fulfillRandomWords fulfills the given request, sending the random words to the suppliedconsumer."
      },
      "fulfillRandomWordsWithOverride(uint256,address,uint256[])": {
        "notice": "fulfillRandomWordsWithOverride allows the user to pass in their own random words."
      },
      "fundSubscription(uint256,uint256)": {
        "notice": "fundSubscription allows funding a subscription with an arbitrary amount for testing."
      },
      "fundSubscriptionWithNative(uint256)": {
        "notice": "Fund a subscription with native.This method expects msg.value to be greater than or equal to 0."
      },
      "getActiveSubscriptionIds(uint256,uint256)": {
        "notice": "Paginate through all active VRF subscriptions."
      },
      "getSubscription(uint256)": {
        "notice": "Get a VRF subscription."
      },
      "owner()": {
        "notice": "Get the current owner"
      },
      "ownerCancelSubscription(uint256)": {
        "notice": "Owner cancel subscription, sends remaining link directly to the subscription owner."
      },
      "recoverFunds(address)": {
        "notice": "Recover link sent with transfer instead of transferAndCall."
      },
      "recoverNativeFunds(address)": {
        "notice": "Recover native sent with transfer/call/send instead of fundSubscription."
      },
      "removeConsumer(uint256,address)": {
        "notice": "Remove a consumer from a VRF subscription."
      },
      "requestSubscriptionOwnerTransfer(uint256,address)": {
        "notice": "Request subscription owner transfer."
      },
      "setConfig()": {
        "notice": "Sets the configuration of the vrfv2 mock coordinator"
      },
      "setLINKAndLINKNativeFeed(address,address)": {
        "notice": "set the LINK token contract and link native feed to be used by this coordinator"
      },
      "transferOwnership(address)": {
        "notice": "Allows an owner to begin transferring ownership to a new address."
      }
    },
    "version": 1
  },
  "storageLayout": {
    "storage": [
      {
        "astId": 29,
        "contract": "@chainlink/contracts/src/v0.8/vrf/mocks/VRFCoordinatorV2_5Mock.sol:VRFCoordinatorV2_5Mock",
        "label": "s_owner",
        "offset": 0,
        "slot": "0",
        "type": "t_address"
      },
      {
        "astId": 31,
        "contract": "@chainlink/contracts/src/v0.8/vrf/mocks/VRFCoordinatorV2_5Mock.sol:VRFCoordinatorV2_5Mock",
        "label": "s_pendingOwner",
        "offset": 0,
        "slot": "1",
        "type": "t_address"
      },
      {
        "astId": 993,
        "contract": "@chainlink/contracts/src/v0.8/vrf/mocks/VRFCoordinatorV2_5Mock.sol:VRFCoordinatorV2_5Mock",
        "label": "LINK",
        "offset": 0,
        "slot": "2",
        "type": "t_contract(LinkTokenInterface)352"
      },
      {
        "astId": 997,
        "contract": "@chainlink/contracts/src/v0.8/vrf/mocks/VRFCoordinatorV2_5Mock.sol:VRFCoordinatorV2_5Mock",
        "label": "LINK_NATIVE_FEED",
        "offset": 0,
        "slot": "3",
        "type": "t_contract(AggregatorV3Interface)229"
      },
      {
        "astId": 1083,
        "contract": "@chainlink/contracts/src/v0.8/vrf/mocks/VRFCoordinatorV2_5Mock.sol:VRFCoordinatorV2_5Mock",
        "label": "s_consumers",
        "offset": 0,
        "slot": "4",
        "type": "t_mapping(t_address,t_mapping(t_uint256,t_struct(ConsumerConfig)1076_storage))"
      },
      {
        "astId": 1088,
        "contract": "@chainlink/contracts/src/v0.8/vrf/mocks/VRFCoordinatorV2_5Mock.sol:VRFCoordinatorV2_5Mock",
        "label": "s_subscriptionConfigs",
        "offset": 0,
        "slot": "5",
        "type": "t_mapping(t_uint256,t_struct(SubscriptionConfig)1069_storage)"
      },
      {
        "astId": 1093,
        "contract": "@chainlink/contracts/src/v0.8/vrf/mocks/VRFCoordinatorV2_5Mock.sol:VRFCoordinatorV2_5Mock",
        "label": "s_subscriptions",
        "offset": 0,
        "slot": "6",
        "type": "t_mapping(t_uint256,t_struct(Subscription)1061_storage)"
      },
      {
        "astId": 1095,
        "contract": "@chainlink/contracts/src/v0.8/vrf/mocks/VRFCoordinatorV2_5Mock.sol:VRFCoordinatorV2_5Mock",
        "label": "s_currentSubNonce",
        "offset": 0,
        "slot": "7",
        "type": "t_uint64"
      },
      {
        "astId": 1098,
        "contract": "@chainlink/contracts/src/v0.8/vrf/mocks/VRFCoordinatorV2_5Mock.sol:VRFCoordinatorV2_5Mock",
        "label": "s_subIds",
        "offset": 0,
        "slot": "8",
        "type": "t_struct(UintSet)835_storage"
      },
      {
        "astId": 1100,
        "contract": "@chainlink/contracts/src/v0.8/vrf/mocks/VRFCoordinatorV2_5Mock.sol:VRFCoordinatorV2_5Mock",
        "label": "s_totalBalance",
        "offset": 0,
        "slot": "10",
        "type": "t_uint96"
      },
      {
        "astId": 1102,
        "contract": "@chainlink/contracts/src/v0.8/vrf/mocks/VRFCoordinatorV2_5Mock.sol:VRFCoordinatorV2_5Mock",
        "label": "s_totalNativeBalance",
        "offset": 12,
        "slot": "10",
        "type": "t_uint96"
      },
      {
        "astId": 1104,
        "contract": "@chainlink/contracts/src/v0.8/vrf/mocks/VRFCoordinatorV2_5Mock.sol:VRFCoordinatorV2_5Mock",
        "label": "s_withdrawableTokens",
        "offset": 0,
        "slot": "11",
        "type": "t_uint96"
      },
      {
        "astId": 1106,
        "contract": "@chainlink/contracts/src/v0.8/vrf/mocks/VRFCoordinatorV2_5Mock.sol:VRFCoordinatorV2_5Mock",
        "label": "s_withdrawableNative",
        "offset": 12,
        "slot": "11",
        "type": "t_uint96"
      },
      {
        "astId": 1188,
        "contract": "@chainlink/contracts/src/v0.8/vrf/mocks/VRFCoordinatorV2_5Mock.sol:VRFCoordinatorV2_5Mock",
        "label": "s_config",
        "offset": 0,
        "slot": "12",
        "type": "t_struct(Config)1185_storage"
      },
      {
        "astId": 2695,
        "contract": "@chainlink/contracts/src/v0.8/vrf/mocks/VRFCoordinatorV2_5Mock.sol:VRFCoordinatorV2_5Mock",
        "label": "s_currentSubId",
        "offset": 0,
        "slot": "13",
        "type": "t_uint64"
      },
      {
        "astId": 2698,
        "contract": "@chainlink/contracts/src/v0.8/vrf/mocks/VRFCoordinatorV2_5Mock.sol:VRFCoordinatorV2_5Mock",
        "label": "s_nextRequestId",
        "offset": 0,
        "slot": "14",
        "type": "t_uint256"
      },
      {
        "astId": 2701,
        "contract": "@chainlink/contracts/src/v0.8/vrf/mocks/VRFCoordinatorV2_5Mock.sol:VRFCoordinatorV2_5Mock",
        "label": "s_nextPreSeed",
        "offset": 0,
        "slot": "15",
        "type": "t_uint256"
      },
      {
        "astId": 2715,
        "contract": "@chainlink/contracts/src/v0.8/vrf/mocks/VRFCoordinatorV2_5Mock.sol:VRFCoordinatorV2_5Mock",
        "label": "s_requests",
        "offset": 0,
        "slot": "16",
        "type": "t_mapping(t_uint256,t_struct(Request)2710_storage)"
      }
    ],
    "types": {
      "t_address": {
        "encoding": "inplace",
        "label": "address",
        "numberOfBytes": "20"
      },
      "t_array(t_address)dyn_storage": {
        "base": "t_address",
        "encoding": "dynamic_array",
        "label": "address[]",
        "numberOfBytes": "32"
      },
      "t_array(t_bytes32)dyn_storage": {
        "base": "t_bytes32",
        "encoding": "dynamic_array",
        "label": "bytes32[]",
        "numberOfBytes": "32"
      },
      "t_bool": {
        "encoding": "inplace",
        "label": "bool",
        "numberOfBytes": "1"
      },
      "t_bytes32": {
        "encoding": "inplace",
        "label": "bytes32",
        "numberOfBytes": "32"
      },
      "t_bytes_storage": {
        "encoding": "bytes",
        "label": "bytes",
        "numberOfBytes": "32"
      },
      "t_contract(AggregatorV3Interface)229": {
        "encoding": "inplace",
        "label": "contract AggregatorV3Interface",
        "numberOfBytes": "20"
      },
      "t_contract(LinkTokenInterface)352": {
        "encoding": "inplace",
        "label": "contract LinkTokenInterface",
        "numberOfBytes": "20"
      },
      "t_mapping(t_address,t_mapping(t_uint256,t_struct(ConsumerConfig)1076_storage))": {
        "encoding": "mapping",
        "key": "t_address",
        "label": "mapping(address => mapping(uint256 => struct SubscriptionAPI.ConsumerConfig))",
        "numberOfBytes": "32",
        "value": "t_mapping(t_uint256,t_struct(ConsumerConfig)1076_storage)"
      },
      "t_mapping(t_bytes32,t_uint256)": {
        "encoding": "mapping",
        "key": "t_bytes32",
        "label": "mapping(bytes32 => uint256)",
        "numberOfBytes": "32",
        "value": "t_uint256"
      },
      "t_mapping(t_uint256,t_struct(ConsumerConfig)1076_storage)": {
        "encoding": "mapping",
        "key": "t_uint256",
        "label": "mapping(uint256 => struct SubscriptionAPI.ConsumerConfig)",
        "numberOfBytes": "32",
        "value": "t_struct(ConsumerConfig)1076_storage"
      },
      "t_mapping(t_uint256,t_struct(Request)2710_storage)": {
        "encoding": "mapping",
        "key": "t_uint256",
        "label": "mapping(uint256 => struct VRFCoordinatorV2_5Mock.Request)",
        "numberOfBytes": "32",
        "value": "t_struct(Request)2710_storage"
      },
      "t_mapping(t_uint256,t_struct(Subscription)1061_storage)": {
        "encoding": "mapping",
        "key": "t_uint256",
        "label": "mapping(uint256 => struct SubscriptionAPI.Subscription)",
        "numberOfBytes": "32",
        "value": "t_struct(Subscription)1061_storage"
      },
      "t_mapping(t_uint256,t_struct(SubscriptionConfig)1069_storage)": {
        "encoding": "mapping",
        "key": "t_uint256",
        "label": "mapping(uint256 => struct SubscriptionAPI.SubscriptionConfig)",
        "numberOfBytes": "32",
        "value": "t_struct(SubscriptionConfig)1069_storage"
      },
      "t_struct(Config)1185_storage": {
        "encoding": "inplace",
        "label": "struct SubscriptionAPI.Config",
        "members": [
          {
            "astId": 1168,
            "contract": "@chainlink/contracts/src/v0.8/vrf/mocks/VRFCoordinatorV2_5Mock.sol:VRFCoordinatorV2_5Mock",
            "label": "minimumRequestConfirmations",
            "offset": 0,
            "slot": "0",
            "type": "t_uint16"
          },
          {
            "astId": 1170,
            "contract": "@chainlink/contracts/src/v0.8/vrf/mocks/VRFCoordinatorV2_5Mock.sol:VRFCoordinatorV2_5Mock",
            "label": "maxGasLimit",
            "offset": 2,
            "slot": "0",
            "type": "t_uint32"
          },
          {
            "astId": 1172,
            "contract": "@chainlink/contracts/src/v0.8/vrf/mocks/VRFCoordinatorV2_5Mock.sol:VRFCoordinatorV2_5Mock",
            "label": "reentrancyLock",
            "offset": 6,
            "slot": "0",
            "type": "t_bool"
          },
          {
            "astId": 1174,
            "contract": "@chainlink/contracts/src/v0.8/vrf/mocks/VRFCoordinatorV2_5Mock.sol:VRFCoordinatorV2_5Mock",
            "label": "stalenessSeconds",
            "offset": 7,
            "slot": "0",
            "type": "t_uint32"
          },
          {
            "astId": 1176,
            "contract": "@chainlink/contracts/src/v0.8/vrf/mocks/VRFCoordinatorV2_5Mock.sol:VRFCoordinatorV2_5Mock",
            "label": "gasAfterPaymentCalculation",
            "offset": 11,
            "slot": "0",
            "type": "t_uint32"
          },
          {
            "astId": 1178,
            "contract": "@chainlink/contracts/src/v0.8/vrf/mocks/VRFCoordinatorV2_5Mock.sol:VRFCoordinatorV2_5Mock",
            "label": "fulfillmentFlatFeeNativePPM",
            "offset": 15,
            "slot": "0",
            "type": "t_uint32"
          },
          {
            "astId": 1180,
            "contract": "@chainlink/contracts/src/v0.8/vrf/mocks/VRFCoordinatorV2_5Mock.sol:VRFCoordinatorV2_5Mock",
            "label": "fulfillmentFlatFeeLinkDiscountPPM",
            "offset": 19,
            "slot": "0",
            "type": "t_uint32"
          },
          {
            "astId": 1182,
            "contract": "@chainlink/contracts/src/v0.8/vrf/mocks/VRFCoordinatorV2_5Mock.sol:VRFCoordinatorV2_5Mock",
            "label": "nativePremiumPercentage",
            "offset": 23,
            "slot": "0",
            "type": "t_uint8"
          },
          {
            "astId": 1184,
            "contract": "@chainlink/contracts/src/v0.8/vrf/mocks/VRFCoordinatorV2_5Mock.sol:VRFCoordinatorV2_5Mock",
            "label": "linkPremiumPercentage",
            "offset": 24,
            "slot": "0",
            "type": "t_uint8"
          }
        ],
        "numberOfBytes": "32"
      },
      "t_struct(ConsumerConfig)1076_storage": {
        "encoding": "inplace",
        "label": "struct SubscriptionAPI.ConsumerConfig",
        "members": [
          {
            "astId": 1071,
            "contract": "@chainlink/contracts/src/v0.8/vrf/mocks/VRFCoordinatorV2_5Mock.sol:VRFCoordinatorV2_5Mock",
            "label": "active",
            "offset": 0,
            "slot": "0",
            "type": "t_bool"
          },
          {
            "astId": 1073,
            "contract": "@chainlink/contracts/src/v0.8/vrf/mocks/VRFCoordinatorV2_5Mock.sol:VRFCoordinatorV2_5Mock",
            "label": "nonce",
            "offset": 1,
            "slot": "0",
            "type": "t_uint64"
          },
          {
            "astId": 1075,
            "contract": "@chainlink/contracts/src/v0.8/vrf/mocks/VRFCoordinatorV2_5Mock.sol:VRFCoordinatorV2_5Mock",
            "label": "pendingReqCount",
            "offset": 9,
            "slot": "0",
            "type": "t_uint64"
          }
        ],
        "numberOfBytes": "32"
      },
      "t_struct(Request)2710_storage": {
        "encoding": "inplace",
        "label": "struct VRFCoordinatorV2_5Mock.Request",
        "members": [
          {
            "astId": 2703,
            "contract": "@chainlink/contracts/src/v0.8/vrf/mocks/VRFCoordinatorV2_5Mock.sol:VRFCoordinatorV2_5Mock",
            "label": "subId",
            "offset": 0,
            "slot": "0",
            "type": "t_uint256"
          },
          {
            "astId": 2705,
            "contract": "@chainlink/contracts/src/v0.8/vrf/mocks/VRFCoordinatorV2_5Mock.sol:VRFCoordinatorV2_5Mock",
            "label": "callbackGasLimit",
            "offset": 0,
            "slot": "1",
            "type": "t_uint32"
          },
          {
            "astId": 2707,
            "contract": "@chainlink/contracts/src/v0.8/vrf/mocks/VRFCoordinatorV2_5Mock.sol:VRFCoordinatorV2_5Mock",
            "label": "numWords",
            "offset": 4,
            "slot": "1",
            "type": "t_uint32"
          },
          {
            "astId": 2709,
            "contract": "@chainlink/contracts/src/v0.8/vrf/mocks/VRFCoordinatorV2_5Mock.sol:VRFCoordinatorV2_5Mock",
            "label": "extraArgs",
            "offset": 0,
            "slot": "2",
            "type": "t_bytes_storage"
          }
        ],
        "numberOfBytes": "96"
      },
      "t_struct(Set)363_storage": {
        "encoding": "inplace",
        "label": "struct EnumerableSet.Set",
        "members": [
          {
            "astId": 358,
            "contract": "@chainlink/contracts/src/v0.8/vrf/mocks/VRFCoordinatorV2_5Mock.sol:VRFCoordinatorV2_5Mock",
            "label": "_values",
            "offset": 0,
            "slot": "0",
            "type": "t_array(t_bytes32)dyn_storage"
          },
          {
            "astId": 362,
            "contract": "@chainlink/contracts/src/v0.8/vrf/mocks/VRFCoordinatorV2_5Mock.sol:VRFCoordinatorV2_5Mock",
            "label": "_indexes",
            "offset": 0,
            "slot": "1",
            "type": "t_mapping(t_bytes32,t_uint256)"
          }
        ],
        "numberOfBytes": "64"
      },
      "t_struct(Subscription)1061_storage": {
        "encoding": "inplace",
        "label": "struct SubscriptionAPI.Subscription",
        "members": [
          {
            "astId": 1056,
            "contract": "@chainlink/contracts/src/v0.8/vrf/mocks/VRFCoordinatorV2_5Mock.sol:VRFCoordinatorV2_5Mock",
            "label": "balance",
            "offset": 0,
            "slot": "0",
            "type": "t_uint96"
          },
          {
            "astId": 1058,
            "contract": "@chainlink/contracts/src/v0.8/vrf/mocks/VRFCoordinatorV2_5Mock.sol:VRFCoordinatorV2_5Mock",
            "label": "nativeBalance",
            "offset": 12,
            "slot": "0",
            "type": "t_uint96"
          },
          {
            "astId": 1060,
            "contract": "@chainlink/contracts/src/v0.8/vrf/mocks/VRFCoordinatorV2_5Mock.sol:VRFCoordinatorV2_5Mock",
            "label": "reqCount",
            "offset": 24,
            "slot": "0",
            "type": "t_uint64"
          }
        ],
        "numberOfBytes": "32"
      },
      "t_struct(SubscriptionConfig)1069_storage": {
        "encoding": "inplace",
        "label": "struct SubscriptionAPI.SubscriptionConfig",
        "members": [
          {
            "astId": 1063,
            "contract": "@chainlink/contracts/src/v0.8/vrf/mocks/VRFCoordinatorV2_5Mock.sol:VRFCoordinatorV2_5Mock",
            "label": "owner",
            "offset": 0,
            "slot": "0",
            "type": "t_address"
          },
          {
            "astId": 1065,
            "contract": "@chainlink/contracts/src/v0.8/vrf/mocks/VRFCoordinatorV2_5Mock.sol:VRFCoordinatorV2_5Mock",
            "label": "requestedOwner",
            "offset": 0,
            "slot": "1",
            "type": "t_address"
          },
          {
            "astId": 1068,
            "contract": "@chainlink/contracts/src/v0.8/vrf/mocks/VRFCoordinatorV2_5Mock.sol:VRFCoordinatorV2_5Mock",
            "label": "consumers",
            "offset": 0,
            "slot": "2",
            "type": "t_array(t_address)dyn_storage"
          }
        ],
        "numberOfBytes": "96"
      },
      "t_struct(UintSet)835_storage": {
        "encoding": "inplace",
        "label": "struct EnumerableSet.UintSet",
        "members": [
          {
            "astId": 834,
            "contract": "@chainlink/contracts/src/v0.8/vrf/mocks/VRFCoordinatorV2_5Mock.sol:VRFCoordinatorV2_5Mock",
            "label": "_inner",
            "offset": 0,
            "slot": "0",
            "type": "t_struct(Set)363_storage"
          }
        ],
        "numberOfBytes": "64"
      },
      "t_uint16": {
        "encoding": "inplace",
        "label": "uint16",
        "numberOfBytes": "2"
      },
      "t_uint256": {
        "encoding": "inplace",
        "label": "uint256",
        "numberOfBytes": "32"
      },
      "t_uint32": {
        "encoding": "inplace",
        "label": "uint32",
        "numberOfBytes": "4"
      },
      "t_uint64": {
        "encoding": "inplace",
        "label": "uint64",
        "numberOfBytes": "8"
      },
      "t_uint8": {
        "encoding": "inplace",
        "label": "uint8",
        "numberOfBytes": "1"
      },
      "t_uint96": {
        "encoding": "inplace",
        "label": "uint96",
        "numberOfBytes": "12"
      }
    }
  }
}