{
  "address": "0xC81394f9CEEb4De56A788f705B0dB62af1BcaB95",
  "abi": [
    {
      "inputs": [
        {
          "internalType": "address",
          "name": "_vrfCoordinator",
          "type": "address"
        },
        {
          "internalType": "uint256",
          "name": "entranceFee",
          "type": "uint256"
        },
        {
          "internalType": "bytes32",
          "name": "gasLane",
          "type": "bytes32"
        },
        {
          "internalType": "uint256",
          "name": "susbscriptionId",
          "type": "uint256"
        },
        {
          "internalType": "uint32",
          "name": "callbackGasLimit",
          "type": "uint32"
        },
        {
          "internalType": "uint256",
          "name": "interval",
          "type": "uint256"
        }
      ],
      "stateMutability": "nonpayable",
      "type": "constructor"
    },
    {
      "inputs": [
        {
          "internalType": "address",
          "name": "have",
          "type": "address"
        },
        {
          "internalType": "address",
          "name": "want",
          "type": "address"
        }
      ],
      "name": "OnlyCoordinatorCanFulfill",
      "type": "error"
    },
    {
      "inputs": [
        {
          "internalType": "address",
          "name": "have",
          "type": "address"
        },
        {
          "internalType": "address",
          "name": "owner",
          "type": "address"
        },
        {
          "internalType": "address",
          "name": "coordinator",
          "type": "address"
        }
      ],
      "name": "OnlyOwnerOrCoordinator",
      "type": "error"
    },
    {
      "inputs": [],
      "name": "Raffle__notEnoughETHEntered",
      "type": "error"
    },
    {
      "inputs": [],
      "name": "Raffle__notOpen",
      "type": "error"
    },
    {
      "inputs": [],
      "name": "Raffle__notOwner",
      "type": "error"
    },
    {
      "inputs": [],
      "name": "Raffle__transactionFailed",
      "type": "error"
    },
    {
      "inputs": [
        {
          "internalType": "uint256",
          "name": "currentBalance",
          "type": "uint256"
        },
        {
          "internalType": "uint256",
          "name": "numPlayers",
          "type": "uint256"
        },
        {
          "internalType": "uint256",
          "name": "raffleState",
          "type": "uint256"
        }
      ],
      "name": "Raffle__upkeepNotNeeded",
      "type": "error"
    },
    {
      "inputs": [],
      "name": "ZeroAddress",
      "type": "error"
    },
    {
      "anonymous": false,
      "inputs": [
        {
          "indexed": false,
          "internalType": "address",
          "name": "vrfCoordinator",
          "type": "address"
        }
      ],
      "name": "CoordinatorSet",
      "type": "event"
    },
    {
      "anonymous": false,
      "inputs": [
        {
          "indexed": true,
          "internalType": "address",
          "name": "from",
          "type": "address"
        },
        {
          "indexed": true,
          "internalType": "address",
          "name": "to",
          "type": "address"
        }
      ],
      "name": "OwnershipTransferRequested",
      "type": "event"
    },
    {
      "anonymous": false,
      "inputs": [
        {
          "indexed": true,
          "internalType": "address",
          "name": "from",
          "type": "address"
        },
        {
          "indexed": true,
          "internalType": "address",
          "name": "to",
          "type": "address"
        }
      ],
      "name": "OwnershipTransferred",
      "type": "event"
    },
    {
      "anonymous": false,
      "inputs": [
        {
          "indexed": true,
          "internalType": "address",
          "name": "player",
          "type": "address"
        }
      ],
      "name": "RaffleEnter",
      "type": "event"
    },
    {
      "anonymous": false,
      "inputs": [
        {
          "indexed": true,
          "internalType": "uint256",
          "name": "winner",
          "type": "uint256"
        }
      ],
      "name": "RaffleRequestId",
      "type": "event"
    },
    {
      "anonymous": false,
      "inputs": [
        {
          "indexed": true,
          "internalType": "address",
          "name": "winner",
          "type": "address"
        }
      ],
      "name": "winnerPicked",
      "type": "event"
    },
    {
      "inputs": [],
      "name": "acceptOwnership",
      "outputs": [],
      "stateMutability": "nonpayable",
      "type": "function"
    },
    {
      "inputs": [
        {
          "internalType": "bytes",
          "name": "",
          "type": "bytes"
        }
      ],
      "name": "checkUpkeep",
      "outputs": [
        {
          "internalType": "bool",
          "name": "upkeepNeeded",
          "type": "bool"
        },
        {
          "internalType": "bytes",
          "name": "performData",
          "type": "bytes"
        }
      ],
      "stateMutability": "view",
      "type": "function"
    },
    {
      "inputs": [],
      "name": "enterRaffle",
      "outputs": [],
      "stateMutability": "payable",
      "type": "function"
    },
    {
      "inputs": [],
      "name": "getAuthor",
      "outputs": [
        {
          "internalType": "string",
          "name": "",
          "type": "string"
        }
      ],
      "stateMutability": "pure",
      "type": "function"
    },
    {
      "inputs": [],
      "name": "getEntranceFee",
      "outputs": [
        {
          "internalType": "uint256",
          "name": "",
          "type": "uint256"
        }
      ],
      "stateMutability": "view",
      "type": "function"
    },
    {
      "inputs": [],
      "name": "getInterval",
      "outputs": [
        {
          "internalType": "uint256",
          "name": "",
          "type": "uint256"
        }
      ],
      "stateMutability": "view",
      "type": "function"
    },
    {
      "inputs": [],
      "name": "getLastTimeStamp",
      "outputs": [
        {
          "internalType": "uint256",
          "name": "",
          "type": "uint256"
        }
      ],
      "stateMutability": "view",
      "type": "function"
    },
    {
      "inputs": [],
      "name": "getNumWords",
      "outputs": [
        {
          "internalType": "uint256",
          "name": "",
          "type": "uint256"
        }
      ],
      "stateMutability": "pure",
      "type": "function"
    },
    {
      "inputs": [],
      "name": "getNumberOfPlayers",
      "outputs": [
        {
          "internalType": "uint256",
          "name": "",
          "type": "uint256"
        }
      ],
      "stateMutability": "view",
      "type": "function"
    },
    {
      "inputs": [
        {
          "internalType": "uint256",
          "name": "index",
          "type": "uint256"
        }
      ],
      "name": "getPlayer",
      "outputs": [
        {
          "internalType": "address",
          "name": "",
          "type": "address"
        }
      ],
      "stateMutability": "view",
      "type": "function"
    },
    {
      "inputs": [],
      "name": "getRaffleState",
      "outputs": [
        {
          "internalType": "enum Raffle.RaffleState",
          "name": "",
          "type": "uint8"
        }
      ],
      "stateMutability": "view",
      "type": "function"
    },
    {
      "inputs": [],
      "name": "getRecentWinner",
      "outputs": [
        {
          "internalType": "address",
          "name": "",
          "type": "address"
        }
      ],
      "stateMutability": "view",
      "type": "function"
    },
    {
      "inputs": [],
      "name": "getRequestConfimations",
      "outputs": [
        {
          "internalType": "uint256",
          "name": "",
          "type": "uint256"
        }
      ],
      "stateMutability": "pure",
      "type": "function"
    },
    {
      "inputs": [],
      "name": "myCheckUpKeep",
      "outputs": [
        {
          "internalType": "bool",
          "name": "upKeepNeeded",
          "type": "bool"
        }
      ],
      "stateMutability": "view",
      "type": "function"
    },
    {
      "inputs": [],
      "name": "owner",
      "outputs": [
        {
          "internalType": "address",
          "name": "",
          "type": "address"
        }
      ],
      "stateMutability": "view",
      "type": "function"
    },
    {
      "inputs": [
        {
          "internalType": "bytes",
          "name": "",
          "type": "bytes"
        }
      ],
      "name": "performUpkeep",
      "outputs": [],
      "stateMutability": "nonpayable",
      "type": "function"
    },
    {
      "inputs": [
        {
          "internalType": "uint256",
          "name": "requestId",
          "type": "uint256"
        },
        {
          "internalType": "uint256[]",
          "name": "randomWords",
          "type": "uint256[]"
        }
      ],
      "name": "rawFulfillRandomWords",
      "outputs": [],
      "stateMutability": "nonpayable",
      "type": "function"
    },
    {
      "inputs": [],
      "name": "resetRaffleState",
      "outputs": [],
      "stateMutability": "nonpayable",
      "type": "function"
    },
    {
      "inputs": [],
      "name": "s_vrfCoordinator",
      "outputs": [
        {
          "internalType": "contract IVRFCoordinatorV2Plus",
          "name": "",
          "type": "address"
        }
      ],
      "stateMutability": "view",
      "type": "function"
    },
    {
      "inputs": [
        {
          "internalType": "address",
          "name": "_vrfCoordinator",
          "type": "address"
        }
      ],
      "name": "setCoordinator",
      "outputs": [],
      "stateMutability": "nonpayable",
      "type": "function"
    },
    {
      "inputs": [
        {
          "internalType": "address",
          "name": "to",
          "type": "address"
        }
      ],
      "name": "transferOwnership",
      "outputs": [],
      "stateMutability": "nonpayable",
      "type": "function"
    }
  ],
  "transactionHash": "0xc5ec138a5d79376486605a2562eebb36104d86e87d985a9251664e1452cedbcb",
  "args": [
    "0x9DdfaCa8183c41ad55329BdeeD9F6A8d53168B1B",
    "10000000000000000",
    "0x787d74caea10b2b357790d5b5247c2f63d1d91572a9846f780606e4d953677ae",
    "105752341827482583864337633755448387871087161753199591116132016548161125172134",
    "300000",
    "30"
  ],
  "numDeployments": 1,
  "solcInputHash": "af7c94b4985fe7ec2f320983ad95e2d0",
  "bytecode": "0x6101406040523480156200001257600080fd5b5060405162001505380380620015058339810160408190526200003591620001ef565b8533806000816200008d5760405162461bcd60e51b815260206004820152601860248201527f43616e6e6f7420736574206f776e657220746f207a65726f000000000000000060448201526064015b60405180910390fd5b600080546001600160a01b0319166001600160a01b0384811691909117909155811615620000c057620000c08162000144565b5050506001600160a01b038116620000eb5760405163d92e233d60e01b815260040160405180910390fd5b600280546001600160a01b0319166001600160a01b039290921691909117905560809490945260a09290925260c05263ffffffff1660e0526005805460ff60a01b19169055426004556101205250336101005262000267565b336001600160a01b038216036200019e5760405162461bcd60e51b815260206004820152601760248201527f43616e6e6f74207472616e7366657220746f2073656c66000000000000000000604482015260640162000084565b600180546001600160a01b0319166001600160a01b0383811691821790925560008054604051929316917fed8889f560326eb138920d842192f0eb3dd22b4f139c87a2c57538e05bae12789190a350565b60008060008060008060c087890312156200020957600080fd5b86516001600160a01b03811681146200022157600080fd5b80965050602087015194506040870151935060608701519250608087015163ffffffff811681146200025257600080fd5b8092505060a087015190509295509295509295565b60805160a05160c05160e0516101005161012051611239620002cc6000396000818161031d015281816107da015261086801526000610ae2015260006106ac015260006106770152600061065401526000818161017e01526104b001526112396000f3fe60806040526004361061016a5760003560e01c80638da5cb5b116100cb578063a5faa1251161007f578063ef277b7211610059578063ef277b72146103f7578063f2fde38b1461040b578063fd6673f51461042b57600080fd5b8063a5faa12514610376578063c1c244e8146103c2578063e55ae4e8146103d757600080fd5b806391ad27b4116100b057806391ad27b41461030e57806397108700146103415780639eccacf61461035657600080fd5b80638da5cb5b146102d05780638ea98117146102ee57600080fd5b806345c0f5b81161012257806353a2c19a1161010757806353a2c19a146102795780636e04ff0d1461028d57806379ba5097146102bb57600080fd5b806345c0f5b814610222578063473f1ddc1461024757600080fd5b80631fe543e3116101535780631fe543e3146101d85780632cfcc539146101fa5780634585e33b1461020257600080fd5b806309bc33a71461016f578063115cbaf5146101b1575b600080fd5b34801561017b57600080fd5b507f00000000000000000000000000000000000000000000000000000000000000005b6040519081526020015b60405180910390f35b3480156101bd57600080fd5b50600554600160a01b900460ff166040516101a89190610f50565b3480156101e457600080fd5b506101f86101f3366004610f78565b610440565b005b6101f86104ae565b34801561020e57600080fd5b506101f861021d366004610ff7565b6105cd565b34801561022e57600080fd5b506102376107ae565b60405190151581526020016101a8565b34801561025357600080fd5b506005546001600160a01b03165b6040516001600160a01b0390911681526020016101a8565b34801561028557600080fd5b50600161019e565b34801561029957600080fd5b506102ad6102a8366004610ff7565b610838565b6040516101a89291906110af565b3480156102c757600080fd5b506101f8610902565b3480156102dc57600080fd5b506000546001600160a01b0316610261565b3480156102fa57600080fd5b506101f86103093660046110d2565b6109b3565b34801561031a57600080fd5b507f000000000000000000000000000000000000000000000000000000000000000061019e565b34801561034d57600080fd5b506101f8610ad7565b34801561036257600080fd5b50600254610261906001600160a01b031681565b34801561038257600080fd5b50604080518082018252600a81527f556461792053696e676800000000000000000000000000000000000000000000602082015290516101a89190611102565b3480156103ce57600080fd5b5060045461019e565b3480156103e357600080fd5b506102616103f2366004611115565b610b6a565b34801561040357600080fd5b50600361019e565b34801561041757600080fd5b506101f86104263660046110d2565b610b9a565b34801561043757600080fd5b5060035461019e565b6002546001600160a01b0316331461049e576002546040517f1cf993f40000000000000000000000000000000000000000000000000000000081523360048201526001600160a01b0390911660248201526044015b60405180910390fd5b6104a9838383610bae565b505050565b7f0000000000000000000000000000000000000000000000000000000000000000341015610508576040517f3df1df2400000000000000000000000000000000000000000000000000000000815260040160405180910390fd5b6000600554600160a01b900460ff16600181111561052857610528610f3a565b1461055f576040517f4ff3426e00000000000000000000000000000000000000000000000000000000815260040160405180910390fd5b6003805460018101825560009182527fc2575a0e9e593c00f959f8c92f12db2869c3395a3b0502d05e2516446f71f85b0180546001600160a01b0319163390811790915560405190917f0805e1d667bddb8a95f0f09880cf94f403fb596ce79928d9f29b74203ba284d491a2565b60006105d76107ae565b90508061064557600354600554479190600160a01b900460ff16600181111561060257610602610f3a565b6040517f837325cd000000000000000000000000000000000000000000000000000000008152600481019390935260248301919091526044820152606401610495565b6002546040805160c0810182527f000000000000000000000000000000000000000000000000000000000000000081527f000000000000000000000000000000000000000000000000000000000000000060208083019190915260038284015263ffffffff7f00000000000000000000000000000000000000000000000000000000000000001660608301526001608083015282519081019092526000808352926001600160a01b031691639b1c385e919060a082019061070590610d1d565b8152506040518263ffffffff1660e01b8152600401610724919061112e565b6020604051808303816000875af1158015610743573d6000803e3d6000fd5b505050506040513d601f19601f82011682018060405250810190610767919061118b565b6005805460ff60a01b1916600160a01b17905560405190915081907ffb6ffb3a69b3e02728c61005cf4e518880cff2fe90084c6c3e7ac6b019a7779b90600090a250505050565b6005546000908190600160a01b900460ff1660018111156107d1576107d1610f3a565b600014905060007f00000000000000000000000000000000000000000000000000000000000000006004544261080791906111a4565b60035491109150151547151583801561081d5750825b80156108265750815b801561082f5750805b94505050505090565b600060606000600560149054906101000a900460ff16600181111561085f5761085f610f3a565b600014905060007f00000000000000000000000000000000000000000000000000000000000000006004544261089591906111a4565b6003549110915015154715158380156108ab5750825b80156108b45750815b80156108bd5750805b95506040518060400160405280600281526020017f30780000000000000000000000000000000000000000000000000000000000008152509450505050509250929050565b6001546001600160a01b0316331461095c5760405162461bcd60e51b815260206004820152601660248201527f4d7573742062652070726f706f736564206f776e6572000000000000000000006044820152606401610495565b60008054336001600160a01b0319808316821784556001805490911690556040516001600160a01b0390921692909183917f8be0079c531659141344cd1fd0a4f28419497f9722a3daafe3b4186f6b6457e091a350565b6000546001600160a01b031633148015906109d957506002546001600160a01b03163314155b15610a4357336109f16000546001600160a01b031690565b6002546040517f061db9c10000000000000000000000000000000000000000000000000000000081526001600160a01b0393841660048201529183166024830152919091166044820152606401610495565b6001600160a01b038116610a83576040517fd92e233d00000000000000000000000000000000000000000000000000000000815260040160405180910390fd5b600280546001600160a01b0319166001600160a01b0383169081179091556040519081527fd1a6a14209a385a964d036e404cb5cfb71f4000cdb03c9366292430787261be69060200160405180910390a150565b336001600160a01b037f00000000000000000000000000000000000000000000000000000000000000001614610b39576040517f54b6f98d00000000000000000000000000000000000000000000000000000000815260040160405180910390fd5b6005805460ff60a01b191690556040805160008152602081019182905251610b6391600391610ec0565b5042600455565b600060038281548110610b7f57610b7f6111cb565b6000918252602090912001546001600160a01b031692915050565b610ba2610dbb565b610bab81610e17565b50565b60035460009083838381610bc457610bc46111cb565b90506020020135610bd591906111e1565b9050600060038281548110610bec57610bec6111cb565b600091825260208083209190910154600580547fffffffffffffffffffffff000000000000000000000000000000000000000000166001600160a01b03909216918217905560408051938452918301918290529151919250610c519160039190610ec0565b50426004556040516000906001600160a01b0383169047908381818185875af1925050503d8060008114610ca1576040519150601f19603f3d011682016040523d82523d6000602084013e610ca6565b606091505b5050905080610ce1576040517ffcb36ff200000000000000000000000000000000000000000000000000000000815260040160405180910390fd5b6040516001600160a01b038316907f794919b0f484b8e90b1b817ac7f880f846fbd8a9813dee2a378e820db094e3d190600090a2505050505050565b60607f92fd13387c7fe7befbc38d303d6468778fb9731bc4583f17d92989c6fcfdeaaa82604051602401610d5691511515815260200190565b60408051601f198184030181529190526020810180517bffffffffffffffffffffffffffffffffffffffffffffffffffffffff167fffffffff000000000000000000000000000000000000000000000000000000009093169290921790915292915050565b6000546001600160a01b03163314610e155760405162461bcd60e51b815260206004820152601660248201527f4f6e6c792063616c6c61626c65206279206f776e6572000000000000000000006044820152606401610495565b565b336001600160a01b03821603610e6f5760405162461bcd60e51b815260206004820152601760248201527f43616e6e6f74207472616e7366657220746f2073656c660000000000000000006044820152606401610495565b600180546001600160a01b0319166001600160a01b0383811691821790925560008054604051929316917fed8889f560326eb138920d842192f0eb3dd22b4f139c87a2c57538e05bae12789190a350565b828054828255906000526020600020908101928215610f15579160200282015b82811115610f1557825182546001600160a01b0319166001600160a01b03909116178255602090920191600190910190610ee0565b50610f21929150610f25565b5090565b5b80821115610f215760008155600101610f26565b634e487b7160e01b600052602160045260246000fd5b6020810160028310610f7257634e487b7160e01b600052602160045260246000fd5b91905290565b600080600060408486031215610f8d57600080fd5b83359250602084013567ffffffffffffffff80821115610fac57600080fd5b818601915086601f830112610fc057600080fd5b813581811115610fcf57600080fd5b8760208260051b8501011115610fe457600080fd5b6020830194508093505050509250925092565b6000806020838503121561100a57600080fd5b823567ffffffffffffffff8082111561102257600080fd5b818501915085601f83011261103657600080fd5b81358181111561104557600080fd5b86602082850101111561105757600080fd5b60209290920196919550909350505050565b6000815180845260005b8181101561108f57602081850181015186830182015201611073565b506000602082860101526020601f19601f83011685010191505092915050565b82151581526040602082015260006110ca6040830184611069565b949350505050565b6000602082840312156110e457600080fd5b81356001600160a01b03811681146110fb57600080fd5b9392505050565b6020815260006110fb6020830184611069565b60006020828403121561112757600080fd5b5035919050565b60208152815160208201526020820151604082015261ffff60408301511660608201526000606083015163ffffffff80821660808501528060808601511660a0850152505060a083015160c0808401526110ca60e0840182611069565b60006020828403121561119d57600080fd5b5051919050565b818103818111156111c557634e487b7160e01b600052601160045260246000fd5b92915050565b634e487b7160e01b600052603260045260246000fd5b6000826111fe57634e487b7160e01b600052601260045260246000fd5b50069056fea264697066735822122049d9f6bb710c1c0eeb94431cc1be6a4b87441efa026ad58137bb1e5de34259af64736f6c63430008130033",
  "devdoc": {
    "author": "Uday Singh",
    "kind": "dev",
    "methods": {
      "checkUpkeep(bytes)": {
        "details": "checkUpkeep called by keepers ofchain"
      }
    },
    "title": "A decentarlised Lottery contract",
    "version": 1
  },
  "userdoc": {
    "kind": "user",
    "methods": {
      "acceptOwnership()": {
        "notice": "Allows an ownership transfer to be completed by the recipient."
      },
      "owner()": {
        "notice": "Get the current owner"
      },
      "setCoordinator(address)": {
        "notice": "Sets the VRF Coordinator addressThis method should only be callable by the coordinator or contract owner"
      },
      "transferOwnership(address)": {
        "notice": "Allows an owner to begin transferring ownership to a new address."
      }
    },
    "notice": "this contract enables the user to enter the lottery, the winner is chosen with the help of chainlink * * @notice VRF V2.5, and chainlink keepers for automation.",
    "version": 1
  },
  "storageLayout": {
    "storage": [
      {
        "astId": 97,
        "contract": "contracts/Raffle.sol:Raffle",
        "label": "s_owner",
        "offset": 0,
        "slot": "0",
        "type": "t_address"
      },
      {
        "astId": 99,
        "contract": "contracts/Raffle.sol:Raffle",
        "label": "s_pendingOwner",
        "offset": 0,
        "slot": "1",
        "type": "t_address"
      },
      {
        "astId": 2400,
        "contract": "contracts/Raffle.sol:Raffle",
        "label": "s_vrfCoordinator",
        "offset": 0,
        "slot": "2",
        "type": "t_contract(IVRFCoordinatorV2Plus)2549"
      },
      {
        "astId": 3571,
        "contract": "contracts/Raffle.sol:Raffle",
        "label": "s_players",
        "offset": 0,
        "slot": "3",
        "type": "t_array(t_address_payable)dyn_storage"
      },
      {
        "astId": 3585,
        "contract": "contracts/Raffle.sol:Raffle",
        "label": "s_lastTimeStamp",
        "offset": 0,
        "slot": "4",
        "type": "t_uint256"
      },
      {
        "astId": 3593,
        "contract": "contracts/Raffle.sol:Raffle",
        "label": "s_recentWinner",
        "offset": 0,
        "slot": "5",
        "type": "t_address"
      },
      {
        "astId": 3596,
        "contract": "contracts/Raffle.sol:Raffle",
        "label": "s_raffleState",
        "offset": 20,
        "slot": "5",
        "type": "t_enum(RaffleState)3566"
      }
    ],
    "types": {
      "t_address": {
        "encoding": "inplace",
        "label": "address",
        "numberOfBytes": "20"
      },
      "t_address_payable": {
        "encoding": "inplace",
        "label": "address payable",
        "numberOfBytes": "20"
      },
      "t_array(t_address_payable)dyn_storage": {
        "base": "t_address_payable",
        "encoding": "dynamic_array",
        "label": "address payable[]",
        "numberOfBytes": "32"
      },
      "t_contract(IVRFCoordinatorV2Plus)2549": {
        "encoding": "inplace",
        "label": "contract IVRFCoordinatorV2Plus",
        "numberOfBytes": "20"
      },
      "t_enum(RaffleState)3566": {
        "encoding": "inplace",
        "label": "enum Raffle.RaffleState",
        "numberOfBytes": "1"
      },
      "t_uint256": {
        "encoding": "inplace",
        "label": "uint256",
        "numberOfBytes": "32"
      }
    }
  }
}